{
  "_format": "hh-sol-artifact-1",
  "contractName": "AccessControl",
  "sourceName": "contracts/AccessControl.sol",
  "abi": [
    {
      "anonymous": false,
      "inputs": [
        {
          "indexed": true,
          "internalType": "bytes32",
          "name": "resourceId",
          "type": "bytes32"
        },
        {
          "indexed": true,
          "internalType": "address",
          "name": "previousOwner",
          "type": "address"
        },
        {
          "indexed": true,
          "internalType": "address",
          "name": "newOwner",
          "type": "address"
        }
      ],
      "name": "OwnershipTransferred",
      "type": "event"
    },
    {
      "anonymous": false,
      "inputs": [
        {
          "indexed": true,
          "internalType": "bytes32",
          "name": "resourceId",
          "type": "bytes32"
        },
        {
          "indexed": true,
          "internalType": "address",
          "name": "user",
          "type": "address"
        },
        {
          "indexed": false,
          "internalType": "enum AccessControl.Permission",
          "name": "permission",
          "type": "uint8"
        }
      ],
      "name": "PermissionGranted",
      "type": "event"
    },
    {
      "anonymous": false,
      "inputs": [
        {
          "indexed": true,
          "internalType": "bytes32",
          "name": "resourceId",
          "type": "bytes32"
        },
        {
          "indexed": true,
          "internalType": "address",
          "name": "user",
          "type": "address"
        }
      ],
      "name": "PermissionRevoked",
      "type": "event"
    },
    {
      "anonymous": false,
      "inputs": [
        {
          "indexed": true,
          "internalType": "bytes32",
          "name": "resourceId",
          "type": "bytes32"
        },
        {
          "indexed": false,
          "internalType": "bool",
          "name": "isPublic",
          "type": "bool"
        }
      ],
      "name": "PublicStatusChanged",
      "type": "event"
    },
    {
      "anonymous": false,
      "inputs": [
        {
          "indexed": true,
          "internalType": "bytes32",
          "name": "resourceId",
          "type": "bytes32"
        },
        {
          "indexed": true,
          "internalType": "address",
          "name": "user",
          "type": "address"
        },
        {
          "indexed": false,
          "internalType": "enum AccessControl.Permission",
          "name": "requiredPermission",
          "type": "uint8"
        }
      ],
      "name": "ResourceAccessed",
      "type": "event"
    },
    {
      "inputs": [
        {
          "internalType": "bytes32",
          "name": "resourceId",
          "type": "bytes32"
        },
        {
          "internalType": "address[]",
          "name": "users",
          "type": "address[]"
        },
        {
          "internalType": "enum AccessControl.Permission",
          "name": "permission",
          "type": "uint8"
        }
      ],
      "name": "batchGrantPermission",
      "outputs": [],
      "stateMutability": "nonpayable",
      "type": "function"
    },
    {
      "inputs": [
        {
          "internalType": "bytes32",
          "name": "resourceId",
          "type": "bytes32"
        },
        {
          "internalType": "address",
          "name": "user",
          "type": "address"
        }
      ],
      "name": "canRead",
      "outputs": [
        {
          "internalType": "bool",
          "name": "",
          "type": "bool"
        }
      ],
      "stateMutability": "view",
      "type": "function"
    },
    {
      "inputs": [
        {
          "internalType": "bytes32",
          "name": "resourceId",
          "type": "bytes32"
        },
        {
          "internalType": "address",
          "name": "user",
          "type": "address"
        }
      ],
      "name": "canWrite",
      "outputs": [
        {
          "internalType": "bool",
          "name": "",
          "type": "bool"
        }
      ],
      "stateMutability": "view",
      "type": "function"
    },
    {
      "inputs": [
        {
          "internalType": "bytes32",
          "name": "resourceId",
          "type": "bytes32"
        },
        {
          "internalType": "address",
          "name": "user",
          "type": "address"
        },
        {
          "internalType": "enum AccessControl.Permission",
          "name": "required",
          "type": "uint8"
        }
      ],
      "name": "checkPermission",
      "outputs": [
        {
          "internalType": "bool",
          "name": "",
          "type": "bool"
        }
      ],
      "stateMutability": "view",
      "type": "function"
    },
    {
      "inputs": [
        {
          "internalType": "bytes32",
          "name": "groupId",
          "type": "bytes32"
        },
        {
          "internalType": "bytes32",
          "name": "resourceId",
          "type": "bytes32"
        }
      ],
      "name": "createGroup",
      "outputs": [],
      "stateMutability": "nonpayable",
      "type": "function"
    },
    {
      "inputs": [
        {
          "internalType": "bytes32",
          "name": "resourceId",
          "type": "bytes32"
        }
      ],
      "name": "getCollaboratorCount",
      "outputs": [
        {
          "internalType": "uint256",
          "name": "",
          "type": "uint256"
        }
      ],
      "stateMutability": "view",
      "type": "function"
    },
    {
      "inputs": [
        {
          "internalType": "bytes32",
          "name": "resourceId",
          "type": "bytes32"
        }
      ],
      "name": "getCollaborators",
      "outputs": [
        {
          "internalType": "address[]",
          "name": "",
          "type": "address[]"
        }
      ],
      "stateMutability": "view",
      "type": "function"
    },
    {
      "inputs": [
        {
          "internalType": "bytes32",
          "name": "resourceId",
          "type": "bytes32"
        }
      ],
      "name": "getOwner",
      "outputs": [
        {
          "internalType": "address",
          "name": "",
          "type": "address"
        }
      ],
      "stateMutability": "view",
      "type": "function"
    },
    {
      "inputs": [
        {
          "internalType": "bytes32",
          "name": "resourceId",
          "type": "bytes32"
        },
        {
          "internalType": "address",
          "name": "user",
          "type": "address"
        }
      ],
      "name": "getPermission",
      "outputs": [
        {
          "internalType": "enum AccessControl.Permission",
          "name": "",
          "type": "uint8"
        }
      ],
      "stateMutability": "view",
      "type": "function"
    },
    {
      "inputs": [
        {
          "internalType": "bytes32",
          "name": "groupId",
          "type": "bytes32"
        },
        {
          "internalType": "address",
          "name": "user",
          "type": "address"
        },
        {
          "internalType": "enum AccessControl.Permission",
          "name": "permission",
          "type": "uint8"
        }
      ],
      "name": "grantGroupPermission",
      "outputs": [],
      "stateMutability": "nonpayable",
      "type": "function"
    },
    {
      "inputs": [
        {
          "internalType": "bytes32",
          "name": "resourceId",
          "type": "bytes32"
        },
        {
          "internalType": "address",
          "name": "user",
          "type": "address"
        },
        {
          "internalType": "enum AccessControl.Permission",
          "name": "permission",
          "type": "uint8"
        }
      ],
      "name": "grantPermission",
      "outputs": [],
      "stateMutability": "nonpayable",
      "type": "function"
    },
    {
      "inputs": [
        {
          "internalType": "bytes32",
          "name": "",
          "type": "bytes32"
        },
        {
          "internalType": "address",
          "name": "",
          "type": "address"
        }
      ],
      "name": "groupPermissions",
      "outputs": [
        {
          "internalType": "enum AccessControl.Permission",
          "name": "",
          "type": "uint8"
        }
      ],
      "stateMutability": "view",
      "type": "function"
    },
    {
      "inputs": [
        {
          "internalType": "bytes32",
          "name": "resourceId",
          "type": "bytes32"
        }
      ],
      "name": "initializeResource",
      "outputs": [],
      "stateMutability": "nonpayable",
      "type": "function"
    },
    {
      "inputs": [
        {
          "internalType": "bytes32",
          "name": "resourceId",
          "type": "bytes32"
        },
        {
          "internalType": "address",
          "name": "user",
          "type": "address"
        }
      ],
      "name": "isAdmin",
      "outputs": [
        {
          "internalType": "bool",
          "name": "",
          "type": "bool"
        }
      ],
      "stateMutability": "view",
      "type": "function"
    },
    {
      "inputs": [
        {
          "internalType": "bytes32",
          "name": "resourceId",
          "type": "bytes32"
        },
        {
          "internalType": "address",
          "name": "user",
          "type": "address"
        }
      ],
      "name": "isOwner",
      "outputs": [
        {
          "internalType": "bool",
          "name": "",
          "type": "bool"
        }
      ],
      "stateMutability": "view",
      "type": "function"
    },
    {
      "inputs": [
        {
          "internalType": "bytes32",
          "name": "",
          "type": "bytes32"
        }
      ],
      "name": "isPublic",
      "outputs": [
        {
          "internalType": "bool",
          "name": "",
          "type": "bool"
        }
      ],
      "stateMutability": "view",
      "type": "function"
    },
    {
      "inputs": [
        {
          "internalType": "bytes32",
          "name": "",
          "type": "bytes32"
        }
      ],
      "name": "owners",
      "outputs": [
        {
          "internalType": "address",
          "name": "",
          "type": "address"
        }
      ],
      "stateMutability": "view",
      "type": "function"
    },
    {
      "inputs": [
        {
          "internalType": "bytes32",
          "name": "",
          "type": "bytes32"
        },
        {
          "internalType": "address",
          "name": "",
          "type": "address"
        }
      ],
      "name": "permissions",
      "outputs": [
        {
          "internalType": "enum AccessControl.Permission",
          "name": "",
          "type": "uint8"
        }
      ],
      "stateMutability": "view",
      "type": "function"
    },
    {
      "inputs": [
        {
          "internalType": "uint256",
          "name": "offset",
          "type": "uint256"
        },
        {
          "internalType": "uint256",
          "name": "length",
          "type": "uint256"
        }
      ],
      "name": "readBytes",
      "outputs": [
        {
          "internalType": "bool",
          "name": "",
          "type": "bool"
        },
        {
          "internalType": "bytes",
          "name": "",
          "type": "bytes"
        }
      ],
      "stateMutability": "view",
      "type": "function"
    },
    {
      "inputs": [],
      "name": "readBytes",
      "outputs": [
        {
          "internalType": "bool",
          "name": "",
          "type": "bool"
        },
        {
          "internalType": "bytes",
          "name": "",
          "type": "bytes"
        }
      ],
      "stateMutability": "view",
      "type": "function"
    },
    {
      "inputs": [
        {
          "internalType": "bytes32",
          "name": "resourceId",
          "type": "bytes32"
        }
      ],
      "name": "readDocumentData",
      "outputs": [
        {
          "internalType": "bytes",
          "name": "",
          "type": "bytes"
        }
      ],
      "stateMutability": "nonpayable",
      "type": "function"
    },
    {
      "inputs": [
        {
          "internalType": "bytes32",
          "name": "resourceId",
          "type": "bytes32"
        },
        {
          "internalType": "uint256",
          "name": "offset",
          "type": "uint256"
        },
        {
          "internalType": "uint256",
          "name": "length",
          "type": "uint256"
        }
      ],
      "name": "readDocumentDataWithOffset",
      "outputs": [
        {
          "internalType": "bytes",
          "name": "",
          "type": "bytes"
        }
      ],
      "stateMutability": "nonpayable",
      "type": "function"
    },
    {
      "inputs": [
        {
          "internalType": "bytes32",
          "name": "",
          "type": "bytes32"
        }
      ],
      "name": "resourceGroups",
      "outputs": [
        {
          "internalType": "bytes32",
          "name": "",
          "type": "bytes32"
        }
      ],
      "stateMutability": "view",
      "type": "function"
    },
    {
      "inputs": [
        {
          "internalType": "bytes32",
          "name": "resourceId",
          "type": "bytes32"
        },
        {
          "internalType": "address",
          "name": "user",
          "type": "address"
        }
      ],
      "name": "revokePermission",
      "outputs": [],
      "stateMutability": "nonpayable",
      "type": "function"
    },
    {
      "inputs": [
        {
          "internalType": "bytes32",
          "name": "resourceId",
          "type": "bytes32"
        },
        {
          "internalType": "bool",
          "name": "_isPublic",
          "type": "bool"
        }
      ],
      "name": "setPublic",
      "outputs": [],
      "stateMutability": "nonpayable",
      "type": "function"
    },
    {
      "inputs": [
        {
          "internalType": "bytes32",
          "name": "resourceId",
          "type": "bytes32"
        },
        {
          "internalType": "address",
          "name": "newOwner",
          "type": "address"
        }
      ],
      "name": "transferOwnership",
      "outputs": [],
      "stateMutability": "nonpayable",
      "type": "function"
    }
  ],
  "bytecode": "0x608060405234801561001057600080fd5b50611874806100206000396000f3fe608060405234801561001057600080fd5b506004361061018e5760003560e01c806395019203116100de578063cd98de8511610097578063deb931a211610071578063deb931a2146103f7578063e37cd55d14610438578063ef5d6bbb14610458578063fb8ad6ff1461046b57600080fd5b8063cd98de851461039b578063d04a776a146103ae578063d98b5568146103e057600080fd5b8063950192031461030157806395e70bc014610314578063a6a8f17b14610327578063ab2a2bd11461033a578063b75dbb8e1461035a578063c7b24d6b1461036d57600080fd5b80633fb566711161014b5780636b83837e116101255780636b83837e146102a85780638abb6c37146102c85780638f1ac175146102db57806392c7e0ba146102ee57600080fd5b80633fb566711461026f5780634d0b8da01461028257806360d6c7cf1461029557600080fd5b806309861e6d146101935780630a797459146101cb5780630e67dd46146101e0578063210ca514146101f35780633db00268146102215780633ec50c6c14610234575b600080fd5b6101b66101a136600461148c565b60026020526000908152604090205460ff1681565b60405190151581526020015b60405180910390f35b6101de6101d93660046114d0565b610494565b005b6101de6101ee3660046114d0565b6104dd565b61021361020136600461148c565b60056020526000908152604090205481565b6040519081526020016101c2565b6101de61022f36600461150c565b6107d5565b61026261024236600461159c565b600160209081526000928352604080842090915290825290205460ff1681565b6040516101c291906115de565b6101b661027d36600461159c565b610a74565b6101de610290366004611606565b610a98565b6102626102a336600461159c565b610b3e565b6102bb6102b6366004611628565b610b93565b6040516101c2919061169a565b6101b66102d63660046114d0565b610c72565b6101b66102e936600461159c565b610d2e565b6101de6102fc3660046116ad565b610d3c565b6101de61030f36600461148c565b610dcc565b6102bb61032236600461148c565b610e9d565b6101de61033536600461159c565b610f7a565b61034d61034836600461148c565b6112f1565b6040516101c291906116e2565b6101b661036836600461159c565b61135d565b61026261037b36600461159c565b600660209081526000928352604080842090915290825290205460ff1681565b6101b66103a936600461159c565b61136b565b6103d26103bc366004611606565b5050604080516020810190915260008152600191565b6040516101c292919061172f565b6103d2604080516020810190915260008152600191565b61042061040536600461148c565b6000908152602081905260409020546001600160a01b031690565b6040516001600160a01b0390911681526020016101c2565b61021361044636600461148c565b60009081526003602052604090205490565b6101de61046636600461159c565b611379565b61042061047936600461148c565b6000602081905290815260409020546001600160a01b031681565b60008381526006602090815260408083206001600160a01b03861684529091529020805482919060ff191660018360048111156104d3576104d36115c8565b0217905550505050565b8260036104eb823383610c72565b6105105760405162461bcd60e51b815260040161050790611752565b60405180910390fd5b6001600160a01b03841661055d5760405162461bcd60e51b8152602060048201526014602482015273496e76616c69642075736572206164647265737360601b6044820152606401610507565b6004836004811115610571576105716115c8565b036105be5760405162461bcd60e51b815260206004820152601d60248201527f43616e6e6f74206772616e74204f574e4552207065726d697373696f6e0000006044820152606401610507565b60008360048111156105d2576105d26115c8565b0361061f5760405162461bcd60e51b815260206004820152601c60248201527f557365207265766f6b655065726d697373696f6e20696e7374656164000000006044820152606401610507565b6003836004811115610633576106336115c8565b0361069e576000858152602081905260409020546001600160a01b0316331461069e5760405162461bcd60e51b815260206004820152601a60248201527f4f6e6c79206f776e65722063616e206772616e742041444d494e0000000000006044820152606401610507565b60008581526001602090815260408083206001600160a01b038816845290915281205460ff1660048111156106d5576106d56115c8565b0361074757600085815260036020908152604082208054600180820183558285529284200180546001600160a01b0319166001600160a01b038916179055918790529054610723919061179f565b60008681526004602090815260408083206001600160a01b03891684529091529020555b60008581526001602081815260408084206001600160a01b03891685529091529091208054859260ff1990911690836004811115610787576107876115c8565b0217905550836001600160a01b0316857ff66d6f521f94befece8f183019df9dbdf5448cc1dfac2f89d5512677b82907d8856040516107c691906115de565b60405180910390a35050505050565b8360036107e3823383610c72565b6107ff5760405162461bcd60e51b815260040161050790611752565b60005b84811015610a6b57600086868381811061081e5761081e6117b2565b905060200201602081019061083391906117c8565b6001600160a01b0316141580156108ab5750600087815260016020526040812081888885818110610866576108666117b2565b905060200201602081019061087b91906117c8565b6001600160a01b0316815260208101919091526040016000205460ff1660048111156108a9576108a96115c8565b145b15610a5957600087815260016020526040812085918888858181106108d2576108d26117b2565b90506020020160208101906108e791906117c8565b6001600160a01b031681526020810191909152604001600020805460ff1916600183600481111561091a5761091a6115c8565b0217905550600087815260036020526040902086868381811061093f5761093f6117b2565b905060200201602081019061095491906117c8565b8154600180820184556000938452602080852090920180546001600160a01b0319166001600160a01b039490941693909317909255898352600390526040909120546109a0919061179f565b6000888152600460205260408120908888858181106109c1576109c16117b2565b90506020020160208101906109d691906117c8565b6001600160a01b03168152602081019190915260400160002055858582818110610a0257610a026117b2565b9050602002016020810190610a1791906117c8565b6001600160a01b0316877ff66d6f521f94befece8f183019df9dbdf5448cc1dfac2f89d5512677b82907d886604051610a5091906115de565b60405180910390a35b80610a63816117e3565b915050610802565b50505050505050565b6000828152602081905260409020546001600160a01b038281169116145b92915050565b60008181526020819052604090205481906001600160a01b03163314610ad05760405162461bcd60e51b8152600401610507906117fc565b60008281526005602052604090205415610b2c5760405162461bcd60e51b815260206004820152601960248201527f5265736f7572636520616c726561647920696e2067726f7570000000000000006044820152606401610507565b50600090815260056020526040902055565b6000828152602081905260408120546001600160a01b03808416911603610b6757506004610a92565b5060009182526001602090815260408084206001600160a01b0393909316845291905290205460ff1690565b6060836001610ba3823383610c72565b610bbf5760405162461bcd60e51b815260040161050790611752565b600080610bd9604080516020810190915260008152600191565b9150915081610c245760405162461bcd60e51b8152602060048201526017602482015276149958591a5b99c8191bd8dd5b595b9d0819985a5b1959604a1b6044820152606401610507565b336001600160a01b0316887f4a51f2e9b487272f78f9746294cda4f67637be7d86d1e24b2348c8df736dd0356001604051610c5f91906115de565b60405180910390a3979650505050505050565b6000838152602081905260408120546001600160a01b03808516911603610c9b57506001610d27565b6001826004811115610caf57610caf6115c8565b148015610cca575060008481526002602052604090205460ff165b15610cd757506001610d27565b60008481526001602090815260408083206001600160a01b038716845290915290205460ff16826004811115610d0f57610d0f6115c8565b816004811115610d2157610d216115c8565b10159150505b9392505050565b6000610d2783836002610c72565b60008281526020819052604090205482906001600160a01b03163314610d745760405162461bcd60e51b8152600401610507906117fc565b600083815260026020908152604091829020805460ff1916851515908117909155915191825284917fb9057704c8e2e681b0cfbe4bc600eef158e4f7a4d3a9260e81296032b3628745910160405180910390a2505050565b6000818152602081905260409020546001600160a01b031615610e315760405162461bcd60e51b815260206004820152601c60248201527f5265736f7572636520616c726561647920696e697469616c697a6564000000006044820152606401610507565b6000818152602081815260408083208054336001600160a01b0319909116811790915560018352818420818552909252808320805460ff191660041790555190919083907f0b659dccc8eb950324170e8d9598af5ee04ee070883eb28651a96788721fbf83908390a450565b6060816001610ead823383610c72565b610ec95760405162461bcd60e51b815260040161050790611752565b600080610ee3604080516020810190915260008152600191565b9150915081610f2e5760405162461bcd60e51b8152602060048201526017602482015276149958591a5b99c8191bd8dd5b595b9d0819985a5b1959604a1b6044820152606401610507565b336001600160a01b0316867f4a51f2e9b487272f78f9746294cda4f67637be7d86d1e24b2348c8df736dd0356001604051610f6991906115de565b60405180910390a395945050505050565b816003610f88823383610c72565b610fa45760405162461bcd60e51b815260040161050790611752565b6001600160a01b038316610ff15760405162461bcd60e51b8152602060048201526014602482015273496e76616c69642075736572206164647265737360601b6044820152606401610507565b6000848152602081905260409020546001600160a01b039081169084160361105b5760405162461bcd60e51b815260206004820152601e60248201527f43616e6e6f74207265766f6b65206f776e6572207065726d697373696f6e00006044820152606401610507565b60008481526001602090815260408083206001600160a01b038716845290915281205460ff1690816004811115611094576110946115c8565b036110da5760405162461bcd60e51b81526020600482015260166024820152752ab9b2b9103430b9903737903832b936b4b9b9b4b7b760511b6044820152606401610507565b60038160048111156110ee576110ee6115c8565b03611159576000858152602081905260409020546001600160a01b031633146111595760405162461bcd60e51b815260206004820152601b60248201527f4f6e6c79206f776e65722063616e207265766f6b652041444d494e00000000006044820152606401610507565b60008581526004602090815260408083206001600160a01b038816845282528083205488845260039092528220549091906111969060019061179f565b905080821461123f5760008781526003602052604081208054839081106111bf576111bf6117b2565b60009182526020808320909101548a83526003909152604090912080546001600160a01b0390921692508291859081106111fb576111fb6117b2565b600091825260208083209190910180546001600160a01b0319166001600160a01b039485161790558a82526004815260408083209490931682529290925290208290555b600087815260036020526040902080548061125c5761125c611828565b60008281526020808220830160001990810180546001600160a01b03191690559092019092558882526004815260408083206001600160a01b038a168085529083528184208490558a845260018352818420818552909252808320805460ff1916905551909189917f93f50f299c97f9dbc6c8c8193bc0d1072f9ed27d38a021fc70fb48f6c86dcc619190a350505050505050565b60008181526003602090815260409182902080548351818402810184019094528084526060939283018282801561135157602002820191906000526020600020905b81546001600160a01b03168152600190910190602001808311611333575b50505050509050919050565b6000610d2783836003610c72565b6000610d2783836001610c72565b60008281526020819052604090205482906001600160a01b031633146113b15760405162461bcd60e51b8152600401610507906117fc565b6001600160a01b0382166113fb5760405162461bcd60e51b815260206004820152601160248201527024b73b30b634b2103732bb9037bbb732b960791b6044820152606401610507565b60008381526020818152604080832080546001600160a01b038781166001600160a01b03198316811790935560018552838620911680865293528184208054600360ff1991821617909155818552828520805460049216919091179055905191929091839187917f0b659dccc8eb950324170e8d9598af5ee04ee070883eb28651a96788721fbf839190a450505050565b60006020828403121561149e57600080fd5b5035919050565b80356001600160a01b03811681146114bc57600080fd5b919050565b8035600581106114bc57600080fd5b6000806000606084860312156114e557600080fd5b833592506114f5602085016114a5565b9150611503604085016114c1565b90509250925092565b6000806000806060858703121561152257600080fd5b84359350602085013567ffffffffffffffff8082111561154157600080fd5b818701915087601f83011261155557600080fd5b81358181111561156457600080fd5b8860208260051b850101111561157957600080fd5b602083019550809450505050611591604086016114c1565b905092959194509250565b600080604083850312156115af57600080fd5b823591506115bf602084016114a5565b90509250929050565b634e487b7160e01b600052602160045260246000fd5b602081016005831061160057634e487b7160e01b600052602160045260246000fd5b91905290565b6000806040838503121561161957600080fd5b50508035926020909101359150565b60008060006060848603121561163d57600080fd5b505081359360208301359350604090920135919050565b6000815180845260005b8181101561167a5760208185018101518683018201520161165e565b506000602082860101526020601f19601f83011685010191505092915050565b602081526000610d276020830184611654565b600080604083850312156116c057600080fd5b82359150602083013580151581146116d757600080fd5b809150509250929050565b6020808252825182820181905260009190848201906040850190845b818110156117235783516001600160a01b0316835292840192918401916001016116fe565b50909695505050505050565b821515815260406020820152600061174a6040830184611654565b949350505050565b60208082526017908201527f496e73756666696369656e74207065726d697373696f6e000000000000000000604082015260600190565b634e487b7160e01b600052601160045260246000fd5b81810381811115610a9257610a92611789565b634e487b7160e01b600052603260045260246000fd5b6000602082840312156117da57600080fd5b610d27826114a5565b6000600182016117f5576117f5611789565b5060010190565b6020808252601290820152712737ba103932b9b7bab931b29037bbb732b960711b604082015260600190565b634e487b7160e01b600052603160045260246000fdfea26469706673582212203e6ad56751553400d95cf202ca4951d0d9702fa4122d0ec2170142b603b42a4064736f6c63430008140033",
  "linkReferences": {},
  "deployedLinkReferences": {}
}