{
  "_format": "hh-sol-artifact-1",
  "contractName": "CacheController",
  "sourceName": "contracts/CacheController.sol",
  "abi": [
    {
      "anonymous": false,
      "inputs": [
        {
          "indexed": false,
          "internalType": "bytes32[]",
          "name": "resourceIds",
          "type": "bytes32[]"
        },
        {
          "indexed": false,
          "internalType": "uint256",
          "name": "timestamp",
          "type": "uint256"
        }
      ],
      "name": "BatchCacheInvalidated",
      "type": "event"
    },
    {
      "anonymous": false,
      "inputs": [
        {
          "indexed": true,
          "internalType": "bytes32",
          "name": "resourceId",
          "type": "bytes32"
        },
        {
          "indexed": false,
          "internalType": "uint256",
          "name": "timestamp",
          "type": "uint256"
        },
        {
          "indexed": true,
          "internalType": "address",
          "name": "invalidatedBy",
          "type": "address"
        }
      ],
      "name": "CacheInvalidated",
      "type": "event"
    },
    {
      "anonymous": false,
      "inputs": [
        {
          "indexed": false,
          "internalType": "uint256",
          "name": "invalidationId",
          "type": "uint256"
        },
        {
          "indexed": false,
          "internalType": "uint256",
          "name": "timestamp",
          "type": "uint256"
        }
      ],
      "name": "GlobalCacheInvalidated",
      "type": "event"
    },
    {
      "inputs": [
        {
          "internalType": "bytes32[]",
          "name": "resourceIds",
          "type": "bytes32[]"
        }
      ],
      "name": "batchGetLastModified",
      "outputs": [
        {
          "internalType": "uint256[]",
          "name": "",
          "type": "uint256[]"
        }
      ],
      "stateMutability": "view",
      "type": "function"
    },
    {
      "inputs": [
        {
          "internalType": "bytes32[]",
          "name": "resourceIds",
          "type": "bytes32[]"
        }
      ],
      "name": "batchInvalidateCache",
      "outputs": [],
      "stateMutability": "nonpayable",
      "type": "function"
    },
    {
      "inputs": [
        {
          "internalType": "bytes32",
          "name": "resourceId",
          "type": "bytes32"
        }
      ],
      "name": "getLastModified",
      "outputs": [
        {
          "internalType": "uint256",
          "name": "",
          "type": "uint256"
        }
      ],
      "stateMutability": "view",
      "type": "function"
    },
    {
      "inputs": [
        {
          "internalType": "address",
          "name": "user",
          "type": "address"
        }
      ],
      "name": "getUserInvalidations",
      "outputs": [
        {
          "internalType": "bytes32[]",
          "name": "",
          "type": "bytes32[]"
        }
      ],
      "stateMutability": "view",
      "type": "function"
    },
    {
      "inputs": [],
      "name": "globalInvalidate",
      "outputs": [],
      "stateMutability": "nonpayable",
      "type": "function"
    },
    {
      "inputs": [],
      "name": "globalInvalidationCount",
      "outputs": [
        {
          "internalType": "uint256",
          "name": "",
          "type": "uint256"
        }
      ],
      "stateMutability": "view",
      "type": "function"
    },
    {
      "inputs": [
        {
          "internalType": "bytes32",
          "name": "resourceId",
          "type": "bytes32"
        }
      ],
      "name": "invalidateCache",
      "outputs": [],
      "stateMutability": "nonpayable",
      "type": "function"
    },
    {
      "inputs": [
        {
          "internalType": "bytes32",
          "name": "resourceId",
          "type": "bytes32"
        },
        {
          "internalType": "uint256",
          "name": "cacheTimestamp",
          "type": "uint256"
        }
      ],
      "name": "isCacheValid",
      "outputs": [
        {
          "internalType": "bool",
          "name": "",
          "type": "bool"
        }
      ],
      "stateMutability": "view",
      "type": "function"
    },
    {
      "inputs": [
        {
          "internalType": "bytes32",
          "name": "",
          "type": "bytes32"
        }
      ],
      "name": "lastModified",
      "outputs": [
        {
          "internalType": "uint256",
          "name": "",
          "type": "uint256"
        }
      ],
      "stateMutability": "view",
      "type": "function"
    },
    {
      "inputs": [
        {
          "internalType": "address",
          "name": "",
          "type": "address"
        },
        {
          "internalType": "uint256",
          "name": "",
          "type": "uint256"
        }
      ],
      "name": "userInvalidations",
      "outputs": [
        {
          "internalType": "bytes32",
          "name": "",
          "type": "bytes32"
        }
      ],
      "stateMutability": "view",
      "type": "function"
    }
  ],
  "bytecode": "0x608060405234801561001057600080fd5b506106bf806100206000396000f3fe608060405234801561001057600080fd5b506004361061009e5760003560e01c80638c021db1116100665780638c021db11461011957806392124d5c146101395780639814e758146101425780639a27fce014610175578063cbbf6f561461019557600080fd5b8063062dd290146100a35780631932bcdf146100d65780633e9b0687146100e95780635931968f146100f35780637575db0a14610106575b600080fd5b6100c36100b136600461049c565b60009081526020819052604090205490565b6040519081526020015b60405180910390f35b6100c36100e43660046104d1565b6101a8565b6100f16101d9565b005b6100f16101013660046104fb565b61022b565b6100f161011436600461049c565b610312565b61012c610127366004610570565b61037a565b6040516100cd9190610592565b6100c360025481565b6101656101503660046105d6565b60009182526020829052604090912054111590565b60405190151581526020016100cd565b6100c361018336600461049c565b60006020819052908152604090205481565b61012c6101a33660046104fb565b6103e6565b600160205281600052604060002081815481106101c457600080fd5b90600052602060002001600091509150505481565b600280549060006101e9836105f8565b9091555050600254604080519182524260208301527f7d17ebecf159de5cbc2555dcc8fe497147bdc505975d97519c6b8d5369a66a66910160405180910390a1565b4260005b828110156102d1578160008086868581811061024d5761024d61061f565b9050602002013581526020019081526020016000208190555060016000336001600160a01b03166001600160a01b0316815260200190815260200160002084848381811061029d5761029d61061f565b83546001810185556000948552602094859020919094029290920135919092015550806102c9816105f8565b91505061022f565b507f63775f4f2f448bfcc48b6ca3c3af06a75d6ecf057da0f8ae3f479a03ed8bf01183838360405161030593929190610635565b60405180910390a1505050565b600081815260208181526040808320429081905533808552600180855283862080549182018155865294849020909401859055905190815283917fed604ccb0dc706f6de87be21d3bd1e04d679750628f965baa1e28227422fc36b910160405180910390a350565b6001600160a01b0381166000908152600160209081526040918290208054835181840281018401909452808452606093928301828280156103da57602002820191906000526020600020905b8154815260200190600101908083116103c6575b50505050509050919050565b606060008267ffffffffffffffff81111561040357610403610673565b60405190808252806020026020018201604052801561042c578160200160208202803683370190505b50905060005b838110156104945760008086868481811061044f5761044f61061f565b905060200201358152602001908152602001600020548282815181106104775761047761061f565b60209081029190910101528061048c816105f8565b915050610432565b509392505050565b6000602082840312156104ae57600080fd5b5035919050565b80356001600160a01b03811681146104cc57600080fd5b919050565b600080604083850312156104e457600080fd5b6104ed836104b5565b946020939093013593505050565b6000806020838503121561050e57600080fd5b823567ffffffffffffffff8082111561052657600080fd5b818501915085601f83011261053a57600080fd5b81358181111561054957600080fd5b8660208260051b850101111561055e57600080fd5b60209290920196919550909350505050565b60006020828403121561058257600080fd5b61058b826104b5565b9392505050565b6020808252825182820181905260009190848201906040850190845b818110156105ca578351835292840192918401916001016105ae565b50909695505050505050565b600080604083850312156105e957600080fd5b50508035926020909101359150565b60006001820161061857634e487b7160e01b600052601160045260246000fd5b5060010190565b634e487b7160e01b600052603260045260246000fd5b6040808252810183905260006001600160fb1b0384111561065557600080fd5b8360051b808660608501376020830193909352500160600192915050565b634e487b7160e01b600052604160045260246000fdfea26469706673582212204e47fe0f3a2b6023b13112a725d815cb195da27911596b9bfe0c763a7a252b0464736f6c63430008140033",
  "linkReferences": {},
  "deployedLinkReferences": {}
}