{
  "_format": "hh-sol-artifact-1",
  "contractName": "DocumentRegistry",
  "sourceName": "contracts/DocumentRegistry.sol",
  "abi": [
    {
      "anonymous": false,
      "inputs": [
        {
          "indexed": true,
          "internalType": "bytes32",
          "name": "docId",
          "type": "bytes32"
        },
        {
          "indexed": true,
          "internalType": "bytes32",
          "name": "irysId",
          "type": "bytes32"
        },
        {
          "indexed": true,
          "internalType": "address",
          "name": "owner",
          "type": "address"
        },
        {
          "indexed": false,
          "internalType": "bytes32",
          "name": "projectId",
          "type": "bytes32"
        },
        {
          "indexed": false,
          "internalType": "string",
          "name": "title",
          "type": "string"
        }
      ],
      "name": "DocumentRegistered",
      "type": "event"
    },
    {
      "anonymous": false,
      "inputs": [
        {
          "indexed": true,
          "internalType": "bytes32",
          "name": "docId",
          "type": "bytes32"
        },
        {
          "indexed": false,
          "internalType": "uint8",
          "name": "oldStatus",
          "type": "uint8"
        },
        {
          "indexed": false,
          "internalType": "uint8",
          "name": "newStatus",
          "type": "uint8"
        }
      ],
      "name": "DocumentStatusChanged",
      "type": "event"
    },
    {
      "anonymous": false,
      "inputs": [
        {
          "indexed": true,
          "internalType": "bytes32",
          "name": "docId",
          "type": "bytes32"
        },
        {
          "indexed": false,
          "internalType": "uint256",
          "name": "timestamp",
          "type": "uint256"
        },
        {
          "indexed": false,
          "internalType": "address",
          "name": "updater",
          "type": "address"
        }
      ],
      "name": "DocumentUpdated",
      "type": "event"
    },
    {
      "anonymous": false,
      "inputs": [
        {
          "indexed": true,
          "internalType": "bytes32",
          "name": "docId",
          "type": "bytes32"
        },
        {
          "indexed": false,
          "internalType": "address",
          "name": "viewer",
          "type": "address"
        }
      ],
      "name": "DocumentViewed",
      "type": "event"
    },
    {
      "inputs": [
        {
          "internalType": "bytes32",
          "name": "",
          "type": "bytes32"
        }
      ],
      "name": "documents",
      "outputs": [
        {
          "internalType": "bytes32",
          "name": "irysId",
          "type": "bytes32"
        },
        {
          "internalType": "address",
          "name": "owner",
          "type": "address"
        },
        {
          "internalType": "uint256",
          "name": "createdAt",
          "type": "uint256"
        },
        {
          "internalType": "uint256",
          "name": "updatedAt",
          "type": "uint256"
        },
        {
          "internalType": "bytes32",
          "name": "projectId",
          "type": "bytes32"
        },
        {
          "internalType": "string",
          "name": "title",
          "type": "string"
        },
        {
          "internalType": "bool",
          "name": "isPublic",
          "type": "bool"
        },
        {
          "internalType": "uint8",
          "name": "status",
          "type": "uint8"
        },
        {
          "internalType": "uint256",
          "name": "viewCount",
          "type": "uint256"
        }
      ],
      "stateMutability": "view",
      "type": "function"
    },
    {
      "inputs": [
        {
          "internalType": "address",
          "name": "",
          "type": "address"
        },
        {
          "internalType": "uint256",
          "name": "",
          "type": "uint256"
        }
      ],
      "name": "documentsByOwner",
      "outputs": [
        {
          "internalType": "bytes32",
          "name": "",
          "type": "bytes32"
        }
      ],
      "stateMutability": "view",
      "type": "function"
    },
    {
      "inputs": [
        {
          "internalType": "bytes32",
          "name": "",
          "type": "bytes32"
        },
        {
          "internalType": "uint256",
          "name": "",
          "type": "uint256"
        }
      ],
      "name": "documentsByProject",
      "outputs": [
        {
          "internalType": "bytes32",
          "name": "",
          "type": "bytes32"
        }
      ],
      "stateMutability": "view",
      "type": "function"
    },
    {
      "inputs": [
        {
          "internalType": "uint8",
          "name": "",
          "type": "uint8"
        },
        {
          "internalType": "uint256",
          "name": "",
          "type": "uint256"
        }
      ],
      "name": "documentsByStatus",
      "outputs": [
        {
          "internalType": "bytes32",
          "name": "",
          "type": "bytes32"
        }
      ],
      "stateMutability": "view",
      "type": "function"
    },
    {
      "inputs": [
        {
          "internalType": "bytes32",
          "name": "",
          "type": "bytes32"
        },
        {
          "internalType": "uint256",
          "name": "",
          "type": "uint256"
        }
      ],
      "name": "documentsByTag",
      "outputs": [
        {
          "internalType": "bytes32",
          "name": "",
          "type": "bytes32"
        }
      ],
      "stateMutability": "view",
      "type": "function"
    },
    {
      "inputs": [
        {
          "internalType": "bytes32",
          "name": "docId",
          "type": "bytes32"
        }
      ],
      "name": "getDocument",
      "outputs": [
        {
          "components": [
            {
              "internalType": "bytes32",
              "name": "irysId",
              "type": "bytes32"
            },
            {
              "internalType": "address",
              "name": "owner",
              "type": "address"
            },
            {
              "internalType": "uint256",
              "name": "createdAt",
              "type": "uint256"
            },
            {
              "internalType": "uint256",
              "name": "updatedAt",
              "type": "uint256"
            },
            {
              "internalType": "bytes32",
              "name": "projectId",
              "type": "bytes32"
            },
            {
              "internalType": "string",
              "name": "title",
              "type": "string"
            },
            {
              "internalType": "bool",
              "name": "isPublic",
              "type": "bool"
            },
            {
              "internalType": "uint8",
              "name": "status",
              "type": "uint8"
            },
            {
              "internalType": "uint256",
              "name": "viewCount",
              "type": "uint256"
            }
          ],
          "internalType": "struct DocumentRegistry.Document",
          "name": "",
          "type": "tuple"
        }
      ],
      "stateMutability": "view",
      "type": "function"
    },
    {
      "inputs": [
        {
          "internalType": "address",
          "name": "owner",
          "type": "address"
        }
      ],
      "name": "getDocumentCountByOwner",
      "outputs": [
        {
          "internalType": "uint256",
          "name": "",
          "type": "uint256"
        }
      ],
      "stateMutability": "view",
      "type": "function"
    },
    {
      "inputs": [
        {
          "internalType": "bytes32",
          "name": "projectId",
          "type": "bytes32"
        }
      ],
      "name": "getDocumentCountByProject",
      "outputs": [
        {
          "internalType": "uint256",
          "name": "",
          "type": "uint256"
        }
      ],
      "stateMutability": "view",
      "type": "function"
    },
    {
      "inputs": [
        {
          "internalType": "address",
          "name": "owner",
          "type": "address"
        }
      ],
      "name": "getDocumentsByOwner",
      "outputs": [
        {
          "internalType": "bytes32[]",
          "name": "",
          "type": "bytes32[]"
        }
      ],
      "stateMutability": "view",
      "type": "function"
    },
    {
      "inputs": [
        {
          "internalType": "address",
          "name": "owner",
          "type": "address"
        },
        {
          "internalType": "uint256",
          "name": "offset",
          "type": "uint256"
        },
        {
          "internalType": "uint256",
          "name": "limit",
          "type": "uint256"
        }
      ],
      "name": "getDocumentsByOwnerPaginated",
      "outputs": [
        {
          "internalType": "bytes32[]",
          "name": "",
          "type": "bytes32[]"
        }
      ],
      "stateMutability": "view",
      "type": "function"
    },
    {
      "inputs": [
        {
          "internalType": "bytes32",
          "name": "projectId",
          "type": "bytes32"
        }
      ],
      "name": "getDocumentsByProject",
      "outputs": [
        {
          "internalType": "bytes32[]",
          "name": "",
          "type": "bytes32[]"
        }
      ],
      "stateMutability": "view",
      "type": "function"
    },
    {
      "inputs": [
        {
          "internalType": "uint8",
          "name": "status",
          "type": "uint8"
        }
      ],
      "name": "getDocumentsByStatus",
      "outputs": [
        {
          "internalType": "bytes32[]",
          "name": "",
          "type": "bytes32[]"
        }
      ],
      "stateMutability": "view",
      "type": "function"
    },
    {
      "inputs": [
        {
          "internalType": "bytes32",
          "name": "tag",
          "type": "bytes32"
        }
      ],
      "name": "getDocumentsByTag",
      "outputs": [
        {
          "internalType": "bytes32[]",
          "name": "",
          "type": "bytes32[]"
        }
      ],
      "stateMutability": "view",
      "type": "function"
    },
    {
      "inputs": [],
      "name": "getStatistics",
      "outputs": [
        {
          "internalType": "uint256",
          "name": "total",
          "type": "uint256"
        },
        {
          "internalType": "uint256",
          "name": "published",
          "type": "uint256"
        },
        {
          "internalType": "uint256",
          "name": "drafts",
          "type": "uint256"
        },
        {
          "internalType": "uint256",
          "name": "archived",
          "type": "uint256"
        }
      ],
      "stateMutability": "view",
      "type": "function"
    },
    {
      "inputs": [
        {
          "internalType": "bytes32",
          "name": "docId",
          "type": "bytes32"
        }
      ],
      "name": "incrementViewCount",
      "outputs": [],
      "stateMutability": "nonpayable",
      "type": "function"
    },
    {
      "inputs": [
        {
          "internalType": "bytes32",
          "name": "docId",
          "type": "bytes32"
        }
      ],
      "name": "isDocumentExists",
      "outputs": [
        {
          "internalType": "bool",
          "name": "",
          "type": "bool"
        }
      ],
      "stateMutability": "view",
      "type": "function"
    },
    {
      "inputs": [
        {
          "internalType": "uint256",
          "name": "offset",
          "type": "uint256"
        },
        {
          "internalType": "uint256",
          "name": "length",
          "type": "uint256"
        }
      ],
      "name": "readBytes",
      "outputs": [
        {
          "internalType": "bool",
          "name": "",
          "type": "bool"
        },
        {
          "internalType": "bytes",
          "name": "",
          "type": "bytes"
        }
      ],
      "stateMutability": "view",
      "type": "function"
    },
    {
      "inputs": [],
      "name": "readBytes",
      "outputs": [
        {
          "internalType": "bool",
          "name": "",
          "type": "bool"
        },
        {
          "internalType": "bytes",
          "name": "",
          "type": "bytes"
        }
      ],
      "stateMutability": "view",
      "type": "function"
    },
    {
      "inputs": [
        {
          "internalType": "bytes32",
          "name": "irysId",
          "type": "bytes32"
        },
        {
          "internalType": "bytes32",
          "name": "projectId",
          "type": "bytes32"
        },
        {
          "internalType": "string",
          "name": "title",
          "type": "string"
        },
        {
          "internalType": "bytes32[]",
          "name": "tags",
          "type": "bytes32[]"
        }
      ],
      "name": "registerDocument",
      "outputs": [
        {
          "internalType": "bytes32",
          "name": "",
          "type": "bytes32"
        }
      ],
      "stateMutability": "nonpayable",
      "type": "function"
    },
    {
      "inputs": [
        {
          "internalType": "bytes32",
          "name": "docId",
          "type": "bytes32"
        },
        {
          "internalType": "uint8",
          "name": "newStatus",
          "type": "uint8"
        }
      ],
      "name": "setDocumentStatus",
      "outputs": [],
      "stateMutability": "nonpayable",
      "type": "function"
    },
    {
      "inputs": [
        {
          "internalType": "bytes32",
          "name": "docId",
          "type": "bytes32"
        },
        {
          "internalType": "bool",
          "name": "isPublic",
          "type": "bool"
        }
      ],
      "name": "setDocumentVisibility",
      "outputs": [],
      "stateMutability": "nonpayable",
      "type": "function"
    },
    {
      "inputs": [],
      "name": "totalDocuments",
      "outputs": [
        {
          "internalType": "uint256",
          "name": "",
          "type": "uint256"
        }
      ],
      "stateMutability": "view",
      "type": "function"
    },
    {
      "inputs": [],
      "name": "totalPublishedDocuments",
      "outputs": [
        {
          "internalType": "uint256",
          "name": "",
          "type": "uint256"
        }
      ],
      "stateMutability": "view",
      "type": "function"
    },
    {
      "inputs": [
        {
          "internalType": "bytes32",
          "name": "docId",
          "type": "bytes32"
        },
        {
          "internalType": "bytes32",
          "name": "newIrysId",
          "type": "bytes32"
        },
        {
          "internalType": "string",
          "name": "newTitle",
          "type": "string"
        }
      ],
      "name": "updateDocument",
      "outputs": [],
      "stateMutability": "nonpayable",
      "type": "function"
    }
  ],
  "bytecode": "0x608060405234801561001057600080fd5b506118ff806100206000396000f3fe608060405234801561001057600080fd5b50600436106101585760003560e01c80639a415b96116100c3578063d04a776a1161007c578063d04a776a14610355578063d98b556814610387578063df6cc2491461039e578063ea4fc92d146103b1578063f59f4443146103da578063f9fc0f1a1461040f57600080fd5b80639a415b96146102d3578063a72d77bc146102f3578063b0a8edd614610306578063b10d6b4114610319578063b4701d4714610339578063c6e0b8be1461034257600080fd5b80634f4bdcc6116101155780634f4bdcc61461025d578063553181ec1461027057806356991461146102875780637ddfc7d41461029a5780638c237a24146102ad5780638c92ff75146102c057600080fd5b80631dc7ba231461015d5780632b2805db14610186578063372d6b27146101ae57806339eb4af41461022257806341d7ce4f1461023757806343ce92721461024a575b600080fd5b61017061016b366004611193565b610422565b60405161017d91906111ae565b60405180910390f35b6101996101943660046111f2565b6104d2565b60405161017d99989796959493929190611251565b60075460085460046020527f17ef568e3e12ab5b9c7254a8d58478811de00f9e6eb34345acd53bf8fd09d3ec5460026000527f91da3fd0782e51c6b3986e9e672fd566868e71f3dbc2d6c2cd6fbb3e361af2a75460408051948552602085019390935291830152606082015260800161017d565b6102356102303660046112b1565b6105b6565b005b6101706102453660046111f2565b61077e565b6101706102583660046112f4565b6107de565b61017061026b3660046111f2565b6108f8565b61027960075481565b60405190815260200161017d565b6102796102953660046113de565b610958565b6101706102a83660046114bc565b610cb9565b6102356102bb3660046114d7565b610d23565b6102796102ce366004611527565b610e3c565b6102796102e13660046111f2565b60009081526002602052604090205490565b6102356103013660046111f2565b610e6d565b610279610314366004611527565b610ef9565b61032c6103273660046111f2565b610f15565b60405161017d9190611549565b61027960085481565b6102356103503660046115e8565b6110ab565b610379610363366004611527565b5050604080516020810190915260008152600191565b60405161017d92919061161d565b610379604080516020810190915260008152600191565b6102796103ac366004611640565b611145565b6102796103bf3660046114bc565b6001600160a01b031660009081526001602052604090205490565b6103ff6103e83660046111f2565b600090815260208190526040902060020154151590565b604051901515815260200161017d565b61027961041d36600461166a565b611161565b606060028260ff16111561046e5760405162461bcd60e51b815260206004820152600e60248201526d496e76616c69642073746174757360901b60448201526064015b60405180910390fd5b60ff8216600090815260046020908152604091829020805483518184028101840190945280845290918301828280156104c657602002820191906000526020600020905b8154815260200190600101908083116104b2575b50505050509050919050565b60006020819052908152604090208054600182015460028301546003840154600485015460058601805495966001600160a01b03909516959394929391929161051a90611686565b80601f016020809104026020016040519081016040528092919081815260200182805461054690611686565b80156105935780601f1061056857610100808354040283529160200191610593565b820191906000526020600020905b81548152906001019060200180831161057657829003601f168201915b505050506006830154600790930154919260ff8082169361010090920416915089565b60008281526020819052604090206001015482906001600160a01b031633146105f15760405162461bcd60e51b8152600401610465906116ba565b6000838152602081905260408120600201548491036106225760405162461bcd60e51b8152600401610465906116e6565b60028360ff1611156106675760405162461bcd60e51b815260206004820152600e60248201526d496e76616c69642073746174757360901b6044820152606401610465565b6000848152602081905260409020600681015460ff610100909104811690851681146107765760068201805461ff00191661010060ff8816908102919091179091554260038401556000818152600460209081526040822080546001818101835591845291909220018890551480156106e457508060ff16600114155b1561070357600880549060006106f983611733565b9190505550610735565b8060ff16600114801561071a57508460ff16600114155b15610735576008805490600061072f8361174c565b91905055505b6040805160ff80841682528716602082015287917fbe4428b019e1c015536d061f2bd73b8be375833486921a70f9f33fbb56e11db791015b60405180910390a25b505050505050565b6000818152600360209081526040918290208054835181840281018401909452808452606093928301828280156104c657602002820191906000526020600020908154815260200190600101908083116104b25750505050509050919050565b6001600160a01b038316600090815260016020526040902080546060919080851061081b57505060408051600081526020810190915290506108f1565b60006108278587611763565b9050818111156108345750805b6000610840878361177c565b905060008167ffffffffffffffff81111561085d5761085d611327565b604051908082528060200260200182016040528015610886578160200160208202803683370190505b50905060005b828110156108e9578561089f828b611763565b815481106108af576108af61178f565b90600052602060002001548282815181106108cc576108cc61178f565b6020908102919091010152806108e181611733565b91505061088c565b509450505050505b9392505050565b6000818152600260209081526040918290208054835181840281018401909452808452606093928301828280156104c657602002820191906000526020600020908154815260200190600101908083116104b25750505050509050919050565b6000846109995760405162461bcd60e51b815260206004820152600f60248201526e125b9d985b1a5908125c9e5cc81251608a1b6044820152606401610465565b60008351116109e25760405162461bcd60e51b81526020600482015260156024820152745469746c652063616e6e6f7420626520656d70747960581b6044820152606401610465565b60075460408051602081018890526bffffffffffffffffffffffff193360601b1691810191909152426054820152607481019190915260009060940160408051808303601f19018152828252805160209182012061012084018352898452338285019081524285850181815260608701918252608087018c815260a088018c8152600060c08a0181905260e08a018190526101008a0181905286815296879052969095208751815592516001840180546001600160a01b0319166001600160a01b03909216919091179055516002830155516003820155915160048301559151919350906005820190610ad590826117f0565b5060c082015160068201805460e085015161ffff1990911692151561ff0019169290921761010060ff909316830217905590910151600790910155336000818152600160208181526040832080548084018255818552918420909101859055929091529054610b44919061177c565b6000828152600560205260409020558415610b9c576000858152600260209081526040822080546001818101835582855292842001849055918790529054610b8c919061177c565b6000828152600660205260409020555b60046020527f17ef568e3e12ab5b9c7254a8d58478811de00f9e6eb34345acd53bf8fd09d3ec805460018101825560009182527f295841a49a1089f4b560f91cfbb0133326654dcbb1041861fc5dde96c724a22f018290555b8351811015610c555760036000858381518110610c1457610c1461178f565b602090810291909101810151825281810192909252604001600090812080546001810182559082529190200182905580610c4d81611733565b915050610bf5565b5060078054906000610c6683611733565b9190505550336001600160a01b031686827f599538bd0db80e4b170eef13046ecdfa04db60ec170bd86d9d23982e455f4cc48888604051610ca89291906118b0565b60405180910390a495945050505050565b6001600160a01b0381166000908152600160209081526040918290208054835181840281018401909452808452606093928301828280156104c657602002820191906000526020600020908154815260200190600101908083116104b25750505050509050919050565b60008381526020819052604090206001015483906001600160a01b03163314610d5e5760405162461bcd60e51b8152600401610465906116ba565b600084815260208190526040812060020154859103610d8f5760405162461bcd60e51b8152600401610465906116e6565b60008581526020819052604090208415610de65784610de25760405162461bcd60e51b815260206004820152600f60248201526e125b9d985b1a5908125c9e5cc81251608a1b6044820152606401610465565b8481555b835115610dfd5760058101610dfb85826117f0565b505b42600382018190556040805191825233602083015287917f4657b1ae54c124681a540e8417f676e678183e94aeaa0b1836ce7891c1cf1af3910161076d565b60026020528160005260406000208181548110610e5857600080fd5b90600052602060002001600091509150505481565b600081815260208190526040812060020154829103610e9e5760405162461bcd60e51b8152600401610465906116e6565b6000828152602081905260408120600701805491610ebb83611733565b909155505060405133815282907f4221ad2eafeb0a1c901c4f1812a4bfafc06dfacd090dbb733504d8e341b7c72c9060200160405180910390a25050565b60036020528160005260406000208181548110610e5857600080fd5b604080516101208101825260008082526020820181905291810182905260608082018390526080820183905260a082015260c0810182905260e08101829052610100810191909152600082815260208190526040812060020154839103610f8e5760405162461bcd60e51b8152600401610465906116e6565b600083815260208181526040918290208251610120810184528154815260018201546001600160a01b031692810192909252600281015492820192909252600382015460608201526004820154608082015260058201805491929160a084019190610ff890611686565b80601f016020809104026020016040519081016040528092919081815260200182805461102490611686565b80156110715780601f1061104657610100808354040283529160200191611071565b820191906000526020600020905b81548152906001019060200180831161105457829003601f168201915b5050509183525050600682015460ff8082161515602084015261010090910416604082015260079091015460609091015291505b50919050565b60008281526020819052604090206001015482906001600160a01b031633146110e65760405162461bcd60e51b8152600401610465906116ba565b6000838152602081905260408120600201548491036111175760405162461bcd60e51b8152600401610465906116e6565b505060009182526020829052604090912060068101805460ff19169215159290921790915542600390910155565b60016020528160005260406000208181548110610e5857600080fd5b60046020528160005260406000208181548110610e5857600080fd5b803560ff8116811461118e57600080fd5b919050565b6000602082840312156111a557600080fd5b6108f18261117d565b6020808252825182820181905260009190848201906040850190845b818110156111e6578351835292840192918401916001016111ca565b50909695505050505050565b60006020828403121561120457600080fd5b5035919050565b6000815180845260005b8181101561123157602081850181015186830182015201611215565b506000602082860101526020601f19601f83011685010191505092915050565b60006101208b835260018060a01b038b1660208401528960408401528860608401528760808401528060a084015261128b8184018861120b565b95151560c0840152505060ff9290921660e0830152610100909101529695505050505050565b600080604083850312156112c457600080fd5b823591506112d46020840161117d565b90509250929050565b80356001600160a01b038116811461118e57600080fd5b60008060006060848603121561130957600080fd5b611312846112dd565b95602085013595506040909401359392505050565b634e487b7160e01b600052604160045260246000fd5b604051601f8201601f1916810167ffffffffffffffff8111828210171561136657611366611327565b604052919050565b600082601f83011261137f57600080fd5b813567ffffffffffffffff81111561139957611399611327565b6113ac601f8201601f191660200161133d565b8181528460208386010111156113c157600080fd5b816020850160208301376000918101602001919091529392505050565b600080600080608085870312156113f457600080fd5b843593506020808601359350604086013567ffffffffffffffff8082111561141b57600080fd5b61142789838a0161136e565b9450606088013591508082111561143d57600080fd5b818801915088601f83011261145157600080fd5b81358181111561146357611463611327565b8060051b915061147484830161133d565b818152918301840191848101908b84111561148e57600080fd5b938501935b838510156114ac57843582529385019390850190611493565b989b979a50959850505050505050565b6000602082840312156114ce57600080fd5b6108f1826112dd565b6000806000606084860312156114ec57600080fd5b8335925060208401359150604084013567ffffffffffffffff81111561151157600080fd5b61151d8682870161136e565b9150509250925092565b6000806040838503121561153a57600080fd5b50508035926020909101359150565b60208152815160208201526000602083015161157060408401826001600160a01b03169052565b506040830151606083015260608301516080830152608083015160a083015260a08301516101208060c08501526115ab61014085018361120b565b915060c08501516115c060e086018215159052565b5060e08501516101006115d78187018360ff169052565b959095015193019290925250919050565b600080604083850312156115fb57600080fd5b823591506020830135801515811461161257600080fd5b809150509250929050565b8215158152604060208201526000611638604083018461120b565b949350505050565b6000806040838503121561165357600080fd5b61165c836112dd565b946020939093013593505050565b6000806040838503121561167d57600080fd5b61165c8361117d565b600181811c9082168061169a57607f821691505b6020821081036110a557634e487b7160e01b600052602260045260246000fd5b6020808252601290820152712737ba103237b1bab6b2b73a1037bbb732b960711b604082015260600190565b60208082526017908201527f446f63756d656e7420646f6573206e6f74206578697374000000000000000000604082015260600190565b634e487b7160e01b600052601160045260246000fd5b6000600182016117455761174561171d565b5060010190565b60008161175b5761175b61171d565b506000190190565b808201808211156117765761177661171d565b92915050565b818103818111156117765761177661171d565b634e487b7160e01b600052603260045260246000fd5b601f8211156117eb57600081815260208120601f850160051c810160208610156117cc5750805b601f850160051c820191505b81811015610776578281556001016117d8565b505050565b815167ffffffffffffffff81111561180a5761180a611327565b61181e816118188454611686565b846117a5565b602080601f831160018114611853576000841561183b5750858301515b600019600386901b1c1916600185901b178555610776565b600085815260208120601f198616915b8281101561188257888601518255948401946001909101908401611863565b50858210156118a05787850151600019600388901b60f8161c191681555b5050505050600190811b01905550565b828152604060208201526000611638604083018461120b56fea2646970667358221220ac9e5d1f4cbe2b18df3a9947cee9aaa20da5579782642a1754409eb3c9e90e1564736f6c63430008140033",
  "linkReferences": {},
  "deployedLinkReferences": {}
}