{
  "_format": "hh-sol-artifact-1",
  "contractName": "ProvenanceChain",
  "sourceName": "contracts/ProvenanceChain.sol",
  "abi": [
    {
      "anonymous": false,
      "inputs": [
        {
          "indexed": true,
          "internalType": "bytes32",
          "name": "entityId",
          "type": "bytes32"
        },
        {
          "indexed": false,
          "internalType": "uint256",
          "name": "finalVersionCount",
          "type": "uint256"
        }
      ],
      "name": "ProvenanceLocked",
      "type": "event"
    },
    {
      "anonymous": false,
      "inputs": [
        {
          "indexed": true,
          "internalType": "bytes32",
          "name": "entityId",
          "type": "bytes32"
        },
        {
          "indexed": true,
          "internalType": "address",
          "name": "originalAuthor",
          "type": "address"
        },
        {
          "indexed": false,
          "internalType": "bytes32",
          "name": "firstVersionId",
          "type": "bytes32"
        },
        {
          "indexed": false,
          "internalType": "bool",
          "name": "aiGenerated",
          "type": "bool"
        }
      ],
      "name": "ProvenanceRecorded",
      "type": "event"
    },
    {
      "anonymous": false,
      "inputs": [
        {
          "indexed": true,
          "internalType": "bytes32",
          "name": "entityId",
          "type": "bytes32"
        },
        {
          "indexed": true,
          "internalType": "bytes32",
          "name": "versionId",
          "type": "bytes32"
        },
        {
          "indexed": false,
          "internalType": "uint256",
          "name": "versionNumber",
          "type": "uint256"
        },
        {
          "indexed": true,
          "internalType": "address",
          "name": "author",
          "type": "address"
        }
      ],
      "name": "VersionAdded",
      "type": "event"
    },
    {
      "inputs": [
        {
          "internalType": "bytes32",
          "name": "entityId",
          "type": "bytes32"
        },
        {
          "internalType": "bytes32",
          "name": "newVersionId",
          "type": "bytes32"
        },
        {
          "internalType": "string",
          "name": "description",
          "type": "string"
        },
        {
          "internalType": "bool",
          "name": "aiGenerated",
          "type": "bool"
        },
        {
          "internalType": "string",
          "name": "aiModel",
          "type": "string"
        }
      ],
      "name": "addVersion",
      "outputs": [
        {
          "internalType": "uint256",
          "name": "",
          "type": "uint256"
        }
      ],
      "stateMutability": "nonpayable",
      "type": "function"
    },
    {
      "inputs": [
        {
          "internalType": "bytes32",
          "name": "entityId",
          "type": "bytes32"
        }
      ],
      "name": "getAIGeneratedVersions",
      "outputs": [
        {
          "internalType": "uint256[]",
          "name": "",
          "type": "uint256[]"
        }
      ],
      "stateMutability": "view",
      "type": "function"
    },
    {
      "inputs": [
        {
          "internalType": "bytes32",
          "name": "entityId",
          "type": "bytes32"
        }
      ],
      "name": "getLatestVersion",
      "outputs": [
        {
          "components": [
            {
              "internalType": "bytes32",
              "name": "irysId",
              "type": "bytes32"
            },
            {
              "internalType": "address",
              "name": "author",
              "type": "address"
            },
            {
              "internalType": "uint256",
              "name": "timestamp",
              "type": "uint256"
            },
            {
              "internalType": "bytes32",
              "name": "previousVersion",
              "type": "bytes32"
            },
            {
              "internalType": "string",
              "name": "changeDescription",
              "type": "string"
            },
            {
              "internalType": "bool",
              "name": "aiGenerated",
              "type": "bool"
            },
            {
              "internalType": "string",
              "name": "aiModel",
              "type": "string"
            }
          ],
          "internalType": "struct ProvenanceChain.Version",
          "name": "",
          "type": "tuple"
        }
      ],
      "stateMutability": "view",
      "type": "function"
    },
    {
      "inputs": [
        {
          "internalType": "bytes32",
          "name": "entityId",
          "type": "bytes32"
        }
      ],
      "name": "getProvenance",
      "outputs": [
        {
          "components": [
            {
              "internalType": "address",
              "name": "originalAuthor",
              "type": "address"
            },
            {
              "internalType": "uint256",
              "name": "createdAt",
              "type": "uint256"
            },
            {
              "internalType": "uint256",
              "name": "versionCount",
              "type": "uint256"
            },
            {
              "internalType": "bytes32",
              "name": "latestVersion",
              "type": "bytes32"
            },
            {
              "internalType": "bool",
              "name": "isLocked",
              "type": "bool"
            }
          ],
          "internalType": "struct ProvenanceChain.ProvenanceRecord",
          "name": "",
          "type": "tuple"
        }
      ],
      "stateMutability": "view",
      "type": "function"
    },
    {
      "inputs": [],
      "name": "getStatistics",
      "outputs": [
        {
          "internalType": "uint256",
          "name": "entities",
          "type": "uint256"
        },
        {
          "internalType": "uint256",
          "name": "versions",
          "type": "uint256"
        },
        {
          "internalType": "uint256",
          "name": "avgVersions",
          "type": "uint256"
        }
      ],
      "stateMutability": "view",
      "type": "function"
    },
    {
      "inputs": [
        {
          "internalType": "bytes32",
          "name": "entityId",
          "type": "bytes32"
        },
        {
          "internalType": "uint256",
          "name": "versionNumber",
          "type": "uint256"
        }
      ],
      "name": "getVersion",
      "outputs": [
        {
          "components": [
            {
              "internalType": "bytes32",
              "name": "irysId",
              "type": "bytes32"
            },
            {
              "internalType": "address",
              "name": "author",
              "type": "address"
            },
            {
              "internalType": "uint256",
              "name": "timestamp",
              "type": "uint256"
            },
            {
              "internalType": "bytes32",
              "name": "previousVersion",
              "type": "bytes32"
            },
            {
              "internalType": "string",
              "name": "changeDescription",
              "type": "string"
            },
            {
              "internalType": "bool",
              "name": "aiGenerated",
              "type": "bool"
            },
            {
              "internalType": "string",
              "name": "aiModel",
              "type": "string"
            }
          ],
          "internalType": "struct ProvenanceChain.Version",
          "name": "",
          "type": "tuple"
        }
      ],
      "stateMutability": "view",
      "type": "function"
    },
    {
      "inputs": [
        {
          "internalType": "bytes32",
          "name": "entityId",
          "type": "bytes32"
        }
      ],
      "name": "getVersionChain",
      "outputs": [
        {
          "internalType": "bytes32[]",
          "name": "",
          "type": "bytes32[]"
        }
      ],
      "stateMutability": "view",
      "type": "function"
    },
    {
      "inputs": [
        {
          "internalType": "bytes32",
          "name": "entityId",
          "type": "bytes32"
        }
      ],
      "name": "getVersionCount",
      "outputs": [
        {
          "internalType": "uint256",
          "name": "",
          "type": "uint256"
        }
      ],
      "stateMutability": "view",
      "type": "function"
    },
    {
      "inputs": [
        {
          "internalType": "bytes32",
          "name": "entityId",
          "type": "bytes32"
        }
      ],
      "name": "getVersionHistory",
      "outputs": [
        {
          "components": [
            {
              "internalType": "bytes32",
              "name": "irysId",
              "type": "bytes32"
            },
            {
              "internalType": "address",
              "name": "author",
              "type": "address"
            },
            {
              "internalType": "uint256",
              "name": "timestamp",
              "type": "uint256"
            },
            {
              "internalType": "bytes32",
              "name": "previousVersion",
              "type": "bytes32"
            },
            {
              "internalType": "string",
              "name": "changeDescription",
              "type": "string"
            },
            {
              "internalType": "bool",
              "name": "aiGenerated",
              "type": "bool"
            },
            {
              "internalType": "string",
              "name": "aiModel",
              "type": "string"
            }
          ],
          "internalType": "struct ProvenanceChain.Version[]",
          "name": "",
          "type": "tuple[]"
        }
      ],
      "stateMutability": "view",
      "type": "function"
    },
    {
      "inputs": [
        {
          "internalType": "bytes32",
          "name": "entityId",
          "type": "bytes32"
        },
        {
          "internalType": "address",
          "name": "author",
          "type": "address"
        }
      ],
      "name": "getVersionsByAuthor",
      "outputs": [
        {
          "internalType": "uint256[]",
          "name": "",
          "type": "uint256[]"
        }
      ],
      "stateMutability": "view",
      "type": "function"
    },
    {
      "inputs": [
        {
          "internalType": "bytes32",
          "name": "entityId",
          "type": "bytes32"
        }
      ],
      "name": "lockProvenance",
      "outputs": [],
      "stateMutability": "nonpayable",
      "type": "function"
    },
    {
      "inputs": [
        {
          "internalType": "bytes32",
          "name": "",
          "type": "bytes32"
        }
      ],
      "name": "provenance",
      "outputs": [
        {
          "internalType": "address",
          "name": "originalAuthor",
          "type": "address"
        },
        {
          "internalType": "uint256",
          "name": "createdAt",
          "type": "uint256"
        },
        {
          "internalType": "uint256",
          "name": "versionCount",
          "type": "uint256"
        },
        {
          "internalType": "bytes32",
          "name": "latestVersion",
          "type": "bytes32"
        },
        {
          "internalType": "bool",
          "name": "isLocked",
          "type": "bool"
        }
      ],
      "stateMutability": "view",
      "type": "function"
    },
    {
      "inputs": [
        {
          "internalType": "bytes32",
          "name": "entityId",
          "type": "bytes32"
        },
        {
          "internalType": "bytes32",
          "name": "firstVersionId",
          "type": "bytes32"
        },
        {
          "internalType": "bool",
          "name": "aiGenerated",
          "type": "bool"
        },
        {
          "internalType": "string",
          "name": "aiModel",
          "type": "string"
        },
        {
          "internalType": "string",
          "name": "description",
          "type": "string"
        }
      ],
      "name": "recordProvenance",
      "outputs": [
        {
          "internalType": "bytes32",
          "name": "",
          "type": "bytes32"
        }
      ],
      "stateMutability": "nonpayable",
      "type": "function"
    },
    {
      "inputs": [],
      "name": "totalEntities",
      "outputs": [
        {
          "internalType": "uint256",
          "name": "",
          "type": "uint256"
        }
      ],
      "stateMutability": "view",
      "type": "function"
    },
    {
      "inputs": [],
      "name": "totalVersions",
      "outputs": [
        {
          "internalType": "uint256",
          "name": "",
          "type": "uint256"
        }
      ],
      "stateMutability": "view",
      "type": "function"
    },
    {
      "inputs": [
        {
          "internalType": "bytes32",
          "name": "entityId",
          "type": "bytes32"
        },
        {
          "internalType": "bytes32",
          "name": "versionId",
          "type": "bytes32"
        }
      ],
      "name": "verifyVersion",
      "outputs": [
        {
          "internalType": "bool",
          "name": "exists",
          "type": "bool"
        },
        {
          "internalType": "uint256",
          "name": "position",
          "type": "uint256"
        },
        {
          "internalType": "address",
          "name": "author",
          "type": "address"
        }
      ],
      "stateMutability": "view",
      "type": "function"
    },
    {
      "inputs": [
        {
          "internalType": "bytes32",
          "name": "",
          "type": "bytes32"
        },
        {
          "internalType": "uint256",
          "name": "",
          "type": "uint256"
        }
      ],
      "name": "versionByNumber",
      "outputs": [
        {
          "internalType": "bytes32",
          "name": "",
          "type": "bytes32"
        }
      ],
      "stateMutability": "view",
      "type": "function"
    },
    {
      "inputs": [
        {
          "internalType": "bytes32",
          "name": "",
          "type": "bytes32"
        }
      ],
      "name": "versions",
      "outputs": [
        {
          "internalType": "bytes32",
          "name": "irysId",
          "type": "bytes32"
        },
        {
          "internalType": "address",
          "name": "author",
          "type": "address"
        },
        {
          "internalType": "uint256",
          "name": "timestamp",
          "type": "uint256"
        },
        {
          "internalType": "bytes32",
          "name": "previousVersion",
          "type": "bytes32"
        },
        {
          "internalType": "string",
          "name": "changeDescription",
          "type": "string"
        },
        {
          "internalType": "bool",
          "name": "aiGenerated",
          "type": "bool"
        },
        {
          "internalType": "string",
          "name": "aiModel",
          "type": "string"
        }
      ],
      "stateMutability": "view",
      "type": "function"
    }
  ],
  "bytecode": "0x608060405234801561001057600080fd5b506120f9806100206000396000f3fe608060405234801561001057600080fd5b50600436106101165760003560e01c80639d21a8d3116100a2578063cd4c698411610071578063cd4c6984146102e4578063d54b01131461031d578063dd3b014c14610378578063dd4201731461038b578063de4920f41461039e57600080fd5b80639d21a8d3146101f5578063af904a0614610273578063c30081b314610293578063c7cec7f8146102be57600080fd5b80631516866b116100e95780631516866b146101815780632127239814610196578063372d6b27146101a95780635cd8b15e146101cc5780637146b308146101d557600080fd5b806305f234dc1461011b5780630644f83a1461014457806310564a0a1461015b5780631455285c1461016e575b600080fd5b61012e610129366004611b1b565b6103b1565b60405161013b9190611b34565b60405180910390f35b61014d60055481565b60405190815260200161013b565b61014d610169366004611c24565b6104a8565b61012e61017c366004611b1b565b610876565b61019461018f366004611b1b565b6109e0565b005b61012e6101a4366004611cac565b610b28565b6101b1610cb3565b6040805193845260208401929092529082015260600161013b565b61014d60045481565b6101e86101e3366004611b1b565b610ced565b60405161013b9190611da1565b61023f610203366004611b1b565b600060208190529081526040902080546001820154600283015460038401546004909401546001600160a01b0390931693919290919060ff1685565b604080516001600160a01b03909616865260208601949094529284019190915260608301521515608082015260a00161013b565b610286610281366004611e03565b610ef5565b60405161013b9190611e25565b61014d6102a1366004611e03565b600360209081526000928352604080842090915290825290205481565b6102d16102cc366004611b1b565b61115a565b60405161013b9796959493929190611e3f565b6102f76102f2366004611e03565b6112bb565b60408051931515845260208401929092526001600160a01b03169082015260600161013b565b61033061032b366004611b1b565b6114dd565b60405161013b919081516001600160a01b0316815260208083015190820152604080830151908201526060808301519082015260809182015115159181019190915260a00190565b610286610386366004611b1b565b611595565b61014d610399366004611e9a565b611799565b61014d6103ac366004611b1b565b611ad2565b600081815260208190526040812060010154606091839190036103ef5760405162461bcd60e51b81526004016103e690611ef2565b60405180910390fd5b600083815260208190526040812060020154908167ffffffffffffffff81111561041b5761041b611b81565b604051908082528060200260200182016040528015610444578160200160208202803683370190505b50905060005b8281101561049d576000868152600360209081526040808320848452909152902054825183908390811061048057610480611f21565b60209081029190910101528061049581611f37565b91505061044a565b509250505b50919050565b600085815260208190526040812060010154156105075760405162461bcd60e51b815260206004820152601960248201527f50726f76656e616e636520616c7265616479206578697374730000000000000060448201526064016103e6565b846105495760405162461bcd60e51b8152602060048201526012602482015271125b9d985b1a59081d995c9cda5bdb88125160721b60448201526064016103e6565b6040518060a00160405280336001600160a01b03168152602001428152602001600181526020018681526020016000151581525060008088815260200190815260200160002060008201518160000160006101000a8154816001600160a01b0302191690836001600160a01b0316021790555060208201518160010155604082015181600201556060820151816003015560808201518160040160006101000a81548160ff02191690831515021790555090505060006040518060e00160405280878152602001336001600160a01b031681526020014281526020016000801b81526020018481526020018615158152602001858152509050600160008881526020019081526020016000208190806001815401808255809150506001900390600052602060002090600702016000909190919091506000820151816000015560208201518160010160006101000a8154816001600160a01b0302191690836001600160a01b03160217905550604082015181600201556060820151816003015560808201518160040190816106df9190611fe1565b5060a082015160058201805460ff191691151591909117905560c0820151600682019061070c9082611fe1565b50505060008681526002602081815260409283902084518155908401516001820180546001600160a01b0319166001600160a01b03909216919091179055918301519082015560608201516003820155608082015182919060048201906107739082611fe1565b5060a082015160058201805460ff191691151591909117905560c082015160068201906107a09082611fe1565b5050506000878152600360209081526040808320838052909152812087905560048054916107cd83611f37565b9091555050600580549060006107e283611f37565b9091555050604080518781528615156020820152339189917f9d5d45cdece1e8ddbea5cdc606b233943e271154c74a83e883b34ca9a6d4b968910160405180910390a3336001600160a01b031686887f148fff3e34c171df8ad68385215ab0c9dfcc8b355066a4ad64cbc683ae0bdc28600060405161086391815260200190565b60405180910390a4509395945050505050565b600081815260208190526040812060010154606091839190036108ab5760405162461bcd60e51b81526004016103e690611ef2565b600083815260016020526040812090805b8254811015610913578281815481106108d7576108d7611f21565b600091825260209091206005600790920201015460ff161561090157816108fd81611f37565b9250505b8061090b81611f37565b9150506108bc565b5060008167ffffffffffffffff81111561092f5761092f611b81565b604051908082528060200260200182016040528015610958578160200160208202803683370190505b5090506000805b84548110156109d45784818154811061097a5761097a611f21565b600091825260209091206005600790920201015460ff16156109c257808383815181106109a9576109a9611f21565b6020908102919091010152816109be81611f37565b9250505b806109cc81611f37565b91505061095f565b50909695505050505050565b600081815260208190526040812060010154829103610a115760405162461bcd60e51b81526004016103e690611ef2565b600082815260208190526040902060040154829060ff1615610a6c5760405162461bcd60e51b8152602060048201526014602482015273141c9bdd995b985b98d9481a5cc81b1bd8dad95960621b60448201526064016103e6565b600083815260208190526040902080546001600160a01b03163314610ad35760405162461bcd60e51b815260206004820152601d60248201527f4f6e6c79206f726967696e616c20617574686f722063616e206c6f636b00000060448201526064016103e6565b60048101805460ff19166001179055600281015460405185917f01e4e08d38454bc188a7a639533d859ed37e5fdc74bb362111872eb7fb5ec9ec91610b1a91815260200190565b60405180910390a250505050565b60008281526020819052604081206001015460609184919003610b5d5760405162461bcd60e51b81526004016103e690611ef2565b600084815260016020526040812090805b8254811015610bd557856001600160a01b0316838281548110610b9357610b93611f21565b60009182526020909120600160079092020101546001600160a01b031603610bc35781610bbf81611f37565b9250505b80610bcd81611f37565b915050610b6e565b5060008167ffffffffffffffff811115610bf157610bf1611b81565b604051908082528060200260200182016040528015610c1a578160200160208202803683370190505b5090506000805b8454811015610ca657876001600160a01b0316858281548110610c4657610c46611f21565b60009182526020909120600160079092020101546001600160a01b031603610c945780838381518110610c7b57610c7b611f21565b602090810291909101015281610c9081611f37565b9250505b80610c9e81611f37565b915050610c21565b5090979650505050505050565b600080600080600060045411610cca576000610cda565b600454600554610cda91906120a1565b6004546005549096909550909350915050565b60008181526020819052604081206001015460609183919003610d225760405162461bcd60e51b81526004016103e690611ef2565b600083815260016020908152604080832080548251818502810185019093528083529193909284015b82821015610ee95760008481526020908190206040805160e081018252600786029092018054835260018101546001600160a01b03169383019390935260028301549082015260038201546060820152600482018054919291608084019190610db390611f5e565b80601f0160208091040260200160405190810160405280929190818152602001828054610ddf90611f5e565b8015610e2c5780601f10610e0157610100808354040283529160200191610e2c565b820191906000526020600020905b815481529060010190602001808311610e0f57829003601f168201915b5050509183525050600582015460ff1615156020820152600682018054604090920191610e5890611f5e565b80601f0160208091040260200160405190810160405280929190818152602001828054610e8490611f5e565b8015610ed15780601f10610ea657610100808354040283529160200191610ed1565b820191906000526020600020905b815481529060010190602001808311610eb457829003601f168201915b50505050508152505081526020019060010190610d4b565b50505050915050919050565b6040805160e0810182526000808252602080830182905282840182905260608084018390526080840181905260a0840183905260c084015285825281905291822060010154909184919003610f5c5760405162461bcd60e51b81526004016103e690611ef2565b6000848152602081905260409020600201548310610fb55760405162461bcd60e51b815260206004820152601660248201527515995c9cda5bdb88191bd95cc81b9bdd08195e1a5cdd60521b60448201526064016103e6565b6000848152600360208181526040808420878552825280842054808552600280845294829020825160e0810184528154815260018201546001600160a01b03169481019490945294850154918301919091529183015460608201526004830180549293919260808401919061102990611f5e565b80601f016020809104026020016040519081016040528092919081815260200182805461105590611f5e565b80156110a25780601f10611077576101008083540402835291602001916110a2565b820191906000526020600020905b81548152906001019060200180831161108557829003601f168201915b5050509183525050600582015460ff16151560208201526006820180546040909201916110ce90611f5e565b80601f01602080910402602001604051908101604052809291908181526020018280546110fa90611f5e565b80156111475780601f1061111c57610100808354040283529160200191611147565b820191906000526020600020905b81548152906001019060200180831161112a57829003601f168201915b5050505050815250509250505092915050565b60026020819052600091825260409091208054600182015492820154600383015460048401805493956001600160a01b031694929391929161119b90611f5e565b80601f01602080910402602001604051908101604052809291908181526020018280546111c790611f5e565b80156112145780601f106111e957610100808354040283529160200191611214565b820191906000526020600020905b8154815290600101906020018083116111f757829003601f168201915b5050506005840154600685018054949560ff90921694919350915061123890611f5e565b80601f016020809104026020016040519081016040528092919081815260200182805461126490611f5e565b80156112b15780601f10611286576101008083540402835291602001916112b1565b820191906000526020600020905b81548152906001019060200180831161129457829003601f168201915b5050505050905087565b6000818152600260208181526040808420815160e0810183528154815260018201546001600160a01b031693810193909352928301549082015260038201546060820152600482018054849384938493909260808401919061131c90611f5e565b80601f016020809104026020016040519081016040528092919081815260200182805461134890611f5e565b80156113955780601f1061136a57610100808354040283529160200191611395565b820191906000526020600020905b81548152906001019060200180831161137857829003601f168201915b5050509183525050600582015460ff16151560208201526006820180546040909201916113c190611f5e565b80601f01602080910402602001604051908101604052809291908181526020018280546113ed90611f5e565b801561143a5780601f1061140f5761010080835404028352916020019161143a565b820191906000526020600020905b81548152906001019060200180831161141d57829003601f168201915b50505050508152505090508060400151600003611462576000806000935093509350506114d6565b600086815260208190526040812060020154905b818110156114c75760008881526003602090815260408083208484529091529020548790036114b55760018184602001519550955095505050506114d6565b806114bf81611f37565b915050611476565b50600080600094509450945050505b9250925092565b6040805160a0810182526000808252602082018190529181018290526060810182905260808101919091526000828152602081905260408120600101548391036115395760405162461bcd60e51b81526004016103e690611ef2565b505060009081526020818152604091829020825160a08101845281546001600160a01b031681526001820154928101929092526002810154928201929092526003820154606082015260049091015460ff161515608082015290565b6040805160e0810182526000808252602080830182905282840182905260608084018390526080840181905260a0840183905260c0840152848252819052918220600101549091839190036115fc5760405162461bcd60e51b81526004016103e690611ef2565b600083815260208181526040808320600390810154808552600280855294839020835160e0810185528154815260018201546001600160a01b0316958101959095529485015492840192909252830154606083015260048301805491939160808401919061166990611f5e565b80601f016020809104026020016040519081016040528092919081815260200182805461169590611f5e565b80156116e25780601f106116b7576101008083540402835291602001916116e2565b820191906000526020600020905b8154815290600101906020018083116116c557829003601f168201915b5050509183525050600582015460ff161515602082015260068201805460409092019161170e90611f5e565b80601f016020809104026020016040519081016040528092919081815260200182805461173a90611f5e565b80156117875780601f1061175c57610100808354040283529160200191611787565b820191906000526020600020905b81548152906001019060200180831161176a57829003601f168201915b50505050508152505092505050919050565b600085815260208190526040812060010154869082036117cb5760405162461bcd60e51b81526004016103e690611ef2565b600087815260208190526040902060040154879060ff16156118265760405162461bcd60e51b8152602060048201526014602482015273141c9bdd995b985b98d9481a5cc81b1bd8dad95960621b60448201526064016103e6565b866118685760405162461bcd60e51b8152602060048201526012602482015271125b9d985b1a59081d995c9cda5bdb88125160721b60448201526064016103e6565b60008060008a8152602001908152602001600020905060008160030154905060008260020154905060006040518060e001604052808c8152602001336001600160a01b031681526020014281526020018481526020018b81526020018a15158152602001898152509050600160008d81526020019081526020016000208190806001815401808255809150506001900390600052602060002090600702016000909190919091506000820151816000015560208201518160010160006101000a8154816001600160a01b0302191690836001600160a01b031602179055506040820151816002015560608201518160030155608082015181600401908161196f9190611fe1565b5060a082015160058201805460ff191691151591909117905560c0820151600682019061199c9082611fe1565b50505060008b81526002602081815260409283902084518155908401516001820180546001600160a01b0319166001600160a01b0390921691909117905591830151908201556060820151600382015560808201518291906004820190611a039082611fe1565b5060a082015160058201805460ff191691151591909117905560c08201516006820190611a309082611fe1565b50505060008c815260036020818152604080842086855290915282208d905585018c905560028501805491611a6483611f37565b909155505060058054906000611a7983611f37565b9190505550336001600160a01b03168b8d7f148fff3e34c171df8ad68385215ab0c9dfcc8b355066a4ad64cbc683ae0bdc2885604051611abb91815260200190565b60405180910390a4509a9950505050505050505050565b60008181526020819052604081206001015482908203611b045760405162461bcd60e51b81526004016103e690611ef2565b505060009081526020819052604090206002015490565b600060208284031215611b2d57600080fd5b5035919050565b6020808252825182820181905260009190848201906040850190845b818110156109d457835183529284019291840191600101611b50565b80358015158114611b7c57600080fd5b919050565b634e487b7160e01b600052604160045260246000fd5b600082601f830112611ba857600080fd5b813567ffffffffffffffff80821115611bc357611bc3611b81565b604051601f8301601f19908116603f01168101908282118183101715611beb57611beb611b81565b81604052838152866020858801011115611c0457600080fd5b836020870160208301376000602085830101528094505050505092915050565b600080600080600060a08688031215611c3c57600080fd5b8535945060208601359350611c5360408701611b6c565b9250606086013567ffffffffffffffff80821115611c7057600080fd5b611c7c89838a01611b97565b93506080880135915080821115611c9257600080fd5b50611c9f88828901611b97565b9150509295509295909350565b60008060408385031215611cbf57600080fd5b8235915060208301356001600160a01b0381168114611cdd57600080fd5b809150509250929050565b6000815180845260005b81811015611d0e57602081850181015186830182015201611cf2565b506000602082860101526020601f19601f83011685010191505092915050565b8051825260018060a01b03602082015116602083015260408101516040830152606081015160608301526000608082015160e06080850152611d7360e0850182611ce8565b905060a0830151151560a085015260c083015184820360c0860152611d988282611ce8565b95945050505050565b6000602080830181845280855180835260408601915060408160051b870101925083870160005b82811015611df657603f19888603018452611de4858351611d2e565b94509285019290850190600101611dc8565b5092979650505050505050565b60008060408385031215611e1657600080fd5b50508035926020909101359150565b602081526000611e386020830184611d2e565b9392505050565b87815260018060a01b038716602082015285604082015284606082015260e060808201526000611e7260e0830186611ce8565b84151560a084015282810360c0840152611e8c8185611ce8565b9a9950505050505050505050565b600080600080600060a08688031215611eb257600080fd5b8535945060208601359350604086013567ffffffffffffffff80821115611ed857600080fd5b611ee489838a01611b97565b9450611c7c60608901611b6c565b602080825260159082015274115b9d1a5d1e48191bd95cc81b9bdd08195e1a5cdd605a1b604082015260600190565b634e487b7160e01b600052603260045260246000fd5b600060018201611f5757634e487b7160e01b600052601160045260246000fd5b5060010190565b600181811c90821680611f7257607f821691505b6020821081036104a257634e487b7160e01b600052602260045260246000fd5b601f821115611fdc57600081815260208120601f850160051c81016020861015611fb95750805b601f850160051c820191505b81811015611fd857828155600101611fc5565b5050505b505050565b815167ffffffffffffffff811115611ffb57611ffb611b81565b61200f816120098454611f5e565b84611f92565b602080601f831160018114612044576000841561202c5750858301515b600019600386901b1c1916600185901b178555611fd8565b600085815260208120601f198616915b8281101561207357888601518255948401946001909101908401612054565b50858210156120915787850151600019600388901b60f8161c191681555b5050505050600190811b01905550565b6000826120be57634e487b7160e01b600052601260045260246000fd5b50049056fea26469706673582212204deaf0faf4163176df28fce32ee910484abb34e20482ddcece43ddc80713288f64736f6c63430008140033",
  "linkReferences": {},
  "deployedLinkReferences": {}
}