{
  "_format": "hh-sol-artifact-1",
  "contractName": "VectorRegistry",
  "sourceName": "contracts/VectorRegistry.sol",
  "abi": [
    {
      "anonymous": false,
      "inputs": [
        {
          "indexed": true,
          "internalType": "bytes32",
          "name": "clusterId",
          "type": "bytes32"
        },
        {
          "indexed": false,
          "internalType": "uint256",
          "name": "timestamp",
          "type": "uint256"
        }
      ],
      "name": "ClusterCreated",
      "type": "event"
    },
    {
      "anonymous": false,
      "inputs": [
        {
          "indexed": true,
          "internalType": "bytes32",
          "name": "docId",
          "type": "bytes32"
        },
        {
          "indexed": false,
          "internalType": "uint256",
          "name": "timestamp",
          "type": "uint256"
        }
      ],
      "name": "VectorDeactivated",
      "type": "event"
    },
    {
      "anonymous": false,
      "inputs": [
        {
          "indexed": true,
          "internalType": "bytes32",
          "name": "docId",
          "type": "bytes32"
        },
        {
          "indexed": true,
          "internalType": "bytes32",
          "name": "irysVectorId",
          "type": "bytes32"
        },
        {
          "indexed": true,
          "internalType": "bytes32",
          "name": "clusterId",
          "type": "bytes32"
        },
        {
          "indexed": false,
          "internalType": "address",
          "name": "owner",
          "type": "address"
        },
        {
          "indexed": false,
          "internalType": "uint256",
          "name": "dimensions",
          "type": "uint256"
        },
        {
          "indexed": false,
          "internalType": "string",
          "name": "embeddingModel",
          "type": "string"
        }
      ],
      "name": "VectorRegistered",
      "type": "event"
    },
    {
      "anonymous": false,
      "inputs": [
        {
          "indexed": true,
          "internalType": "bytes32",
          "name": "docId",
          "type": "bytes32"
        },
        {
          "indexed": false,
          "internalType": "bytes32",
          "name": "newIrysVectorId",
          "type": "bytes32"
        },
        {
          "indexed": false,
          "internalType": "bytes32",
          "name": "newClusterId",
          "type": "bytes32"
        }
      ],
      "name": "VectorUpdated",
      "type": "event"
    },
    {
      "inputs": [],
      "name": "activeVectors",
      "outputs": [
        {
          "internalType": "uint256",
          "name": "",
          "type": "uint256"
        }
      ],
      "stateMutability": "view",
      "type": "function"
    },
    {
      "inputs": [
        {
          "internalType": "bytes32[]",
          "name": "docIds",
          "type": "bytes32[]"
        }
      ],
      "name": "batchGetVectors",
      "outputs": [
        {
          "components": [
            {
              "internalType": "bytes32",
              "name": "docId",
              "type": "bytes32"
            },
            {
              "internalType": "bytes32",
              "name": "irysVectorId",
              "type": "bytes32"
            },
            {
              "internalType": "address",
              "name": "owner",
              "type": "address"
            },
            {
              "internalType": "uint256",
              "name": "dimensions",
              "type": "uint256"
            },
            {
              "internalType": "string",
              "name": "embeddingModel",
              "type": "string"
            },
            {
              "internalType": "bytes32",
              "name": "clusterId",
              "type": "bytes32"
            },
            {
              "internalType": "uint256",
              "name": "timestamp",
              "type": "uint256"
            },
            {
              "internalType": "bool",
              "name": "active",
              "type": "bool"
            }
          ],
          "internalType": "struct VectorRegistry.VectorMetadata[]",
          "name": "",
          "type": "tuple[]"
        }
      ],
      "stateMutability": "view",
      "type": "function"
    },
    {
      "inputs": [
        {
          "internalType": "bytes32",
          "name": "",
          "type": "bytes32"
        },
        {
          "internalType": "uint256",
          "name": "",
          "type": "uint256"
        }
      ],
      "name": "clusterIndex",
      "outputs": [
        {
          "internalType": "bytes32",
          "name": "",
          "type": "bytes32"
        }
      ],
      "stateMutability": "view",
      "type": "function"
    },
    {
      "inputs": [
        {
          "internalType": "bytes32",
          "name": "",
          "type": "bytes32"
        }
      ],
      "name": "clusters",
      "outputs": [
        {
          "internalType": "uint256",
          "name": "vectorCount",
          "type": "uint256"
        },
        {
          "internalType": "uint256",
          "name": "lastUpdated",
          "type": "uint256"
        }
      ],
      "stateMutability": "view",
      "type": "function"
    },
    {
      "inputs": [
        {
          "internalType": "bytes32",
          "name": "docId",
          "type": "bytes32"
        }
      ],
      "name": "deactivateVector",
      "outputs": [],
      "stateMutability": "nonpayable",
      "type": "function"
    },
    {
      "inputs": [
        {
          "internalType": "bytes32",
          "name": "clusterId",
          "type": "bytes32"
        }
      ],
      "name": "getActiveVectorsByCluster",
      "outputs": [
        {
          "internalType": "bytes32[]",
          "name": "",
          "type": "bytes32[]"
        }
      ],
      "stateMutability": "view",
      "type": "function"
    },
    {
      "inputs": [
        {
          "internalType": "bytes32",
          "name": "clusterId",
          "type": "bytes32"
        }
      ],
      "name": "getClusterInfo",
      "outputs": [
        {
          "components": [
            {
              "internalType": "uint256",
              "name": "vectorCount",
              "type": "uint256"
            },
            {
              "internalType": "uint256",
              "name": "lastUpdated",
              "type": "uint256"
            }
          ],
          "internalType": "struct VectorRegistry.ClusterInfo",
          "name": "",
          "type": "tuple"
        }
      ],
      "stateMutability": "view",
      "type": "function"
    },
    {
      "inputs": [
        {
          "internalType": "bytes32[]",
          "name": "clusterIds",
          "type": "bytes32[]"
        }
      ],
      "name": "getClusterStatistics",
      "outputs": [
        {
          "internalType": "uint256[]",
          "name": "counts",
          "type": "uint256[]"
        }
      ],
      "stateMutability": "view",
      "type": "function"
    },
    {
      "inputs": [],
      "name": "getStatistics",
      "outputs": [
        {
          "internalType": "uint256",
          "name": "total",
          "type": "uint256"
        },
        {
          "internalType": "uint256",
          "name": "active",
          "type": "uint256"
        },
        {
          "internalType": "uint256",
          "name": "clustersCount",
          "type": "uint256"
        }
      ],
      "stateMutability": "view",
      "type": "function"
    },
    {
      "inputs": [
        {
          "internalType": "bytes32",
          "name": "docId",
          "type": "bytes32"
        }
      ],
      "name": "getVector",
      "outputs": [
        {
          "components": [
            {
              "internalType": "bytes32",
              "name": "docId",
              "type": "bytes32"
            },
            {
              "internalType": "bytes32",
              "name": "irysVectorId",
              "type": "bytes32"
            },
            {
              "internalType": "address",
              "name": "owner",
              "type": "address"
            },
            {
              "internalType": "uint256",
              "name": "dimensions",
              "type": "uint256"
            },
            {
              "internalType": "string",
              "name": "embeddingModel",
              "type": "string"
            },
            {
              "internalType": "bytes32",
              "name": "clusterId",
              "type": "bytes32"
            },
            {
              "internalType": "uint256",
              "name": "timestamp",
              "type": "uint256"
            },
            {
              "internalType": "bool",
              "name": "active",
              "type": "bool"
            }
          ],
          "internalType": "struct VectorRegistry.VectorMetadata",
          "name": "",
          "type": "tuple"
        }
      ],
      "stateMutability": "view",
      "type": "function"
    },
    {
      "inputs": [
        {
          "internalType": "bytes32",
          "name": "clusterId",
          "type": "bytes32"
        }
      ],
      "name": "getVectorsByCluster",
      "outputs": [
        {
          "internalType": "bytes32[]",
          "name": "",
          "type": "bytes32[]"
        }
      ],
      "stateMutability": "view",
      "type": "function"
    },
    {
      "inputs": [
        {
          "internalType": "address",
          "name": "owner",
          "type": "address"
        }
      ],
      "name": "getVectorsByOwner",
      "outputs": [
        {
          "internalType": "bytes32[]",
          "name": "",
          "type": "bytes32[]"
        }
      ],
      "stateMutability": "view",
      "type": "function"
    },
    {
      "inputs": [
        {
          "internalType": "bytes32",
          "name": "docId",
          "type": "bytes32"
        }
      ],
      "name": "isActive",
      "outputs": [
        {
          "internalType": "bool",
          "name": "",
          "type": "bool"
        }
      ],
      "stateMutability": "view",
      "type": "function"
    },
    {
      "inputs": [
        {
          "internalType": "address",
          "name": "",
          "type": "address"
        },
        {
          "internalType": "uint256",
          "name": "",
          "type": "uint256"
        }
      ],
      "name": "ownerVectors",
      "outputs": [
        {
          "internalType": "bytes32",
          "name": "",
          "type": "bytes32"
        }
      ],
      "stateMutability": "view",
      "type": "function"
    },
    {
      "inputs": [
        {
          "internalType": "bytes32",
          "name": "docId",
          "type": "bytes32"
        },
        {
          "internalType": "bytes32",
          "name": "irysVectorId",
          "type": "bytes32"
        },
        {
          "internalType": "uint256",
          "name": "dimensions",
          "type": "uint256"
        },
        {
          "internalType": "string",
          "name": "embeddingModel",
          "type": "string"
        },
        {
          "internalType": "bytes32",
          "name": "clusterId",
          "type": "bytes32"
        }
      ],
      "name": "registerVector",
      "outputs": [],
      "stateMutability": "nonpayable",
      "type": "function"
    },
    {
      "inputs": [],
      "name": "totalClusters",
      "outputs": [
        {
          "internalType": "uint256",
          "name": "",
          "type": "uint256"
        }
      ],
      "stateMutability": "view",
      "type": "function"
    },
    {
      "inputs": [],
      "name": "totalVectors",
      "outputs": [
        {
          "internalType": "uint256",
          "name": "",
          "type": "uint256"
        }
      ],
      "stateMutability": "view",
      "type": "function"
    },
    {
      "inputs": [
        {
          "internalType": "bytes32",
          "name": "docId",
          "type": "bytes32"
        },
        {
          "internalType": "bytes32",
          "name": "newIrysVectorId",
          "type": "bytes32"
        },
        {
          "internalType": "bytes32",
          "name": "newClusterId",
          "type": "bytes32"
        }
      ],
      "name": "updateVector",
      "outputs": [],
      "stateMutability": "nonpayable",
      "type": "function"
    },
    {
      "inputs": [
        {
          "internalType": "bytes32",
          "name": "",
          "type": "bytes32"
        }
      ],
      "name": "vectors",
      "outputs": [
        {
          "internalType": "bytes32",
          "name": "docId",
          "type": "bytes32"
        },
        {
          "internalType": "bytes32",
          "name": "irysVectorId",
          "type": "bytes32"
        },
        {
          "internalType": "address",
          "name": "owner",
          "type": "address"
        },
        {
          "internalType": "uint256",
          "name": "dimensions",
          "type": "uint256"
        },
        {
          "internalType": "string",
          "name": "embeddingModel",
          "type": "string"
        },
        {
          "internalType": "bytes32",
          "name": "clusterId",
          "type": "bytes32"
        },
        {
          "internalType": "uint256",
          "name": "timestamp",
          "type": "uint256"
        },
        {
          "internalType": "bool",
          "name": "active",
          "type": "bool"
        }
      ],
      "stateMutability": "view",
      "type": "function"
    }
  ],
  "bytecode": "0x608060405234801561001057600080fd5b506117dd806100206000396000f3fe608060405234801561001057600080fd5b50600436106101215760003560e01c80638c758673116100ad578063d9f8d75a11610071578063d9f8d75a14610317578063dca338011461032a578063deec4c071461033d578063e53420b914610350578063f6556e141461036357600080fd5b80638c7586731461026b578063a40ef306146102d2578063b96c311b146102db578063bd5e3c6a146102e4578063c4436587146102f757600080fd5b8063372d6b27116100f4578063372d6b27146101c95780634a1f302d146101ed5780635696a91c1461020d5780635c36901c146102205780638ab894941461025657600080fd5b8063013ab346146101265780632e41e2e81461014f57806335543fad1461018b57806336962304146101a2575b600080fd5b6101396101343660046111d9565b610376565b6040516101469190611307565b60405180910390f35b61017661015d366004611369565b6002602052600090815260409020805460019091015482565b60408051928352602083019190915201610146565b61019460055481565b604051908152602001610146565b6101b56101b0366004611369565b610582565b604051610146989796959493929190611382565b60045460065460055460408051938452602084019290925290820152606001610146565b6102006101fb3660046111d9565b61065c565b60405161014691906113d9565b61020061021b366004611439565b610713565b61024661022e366004611369565b60009081526020819052604090206007015460ff1690565b6040519015158152602001610146565b61026961026436600461145b565b61077f565b005b6102b7610279366004611369565b604080518082019091526000808252602082015250600090815260026020908152604091829020825180840190935280548352600101549082015290565b60408051825181526020928301519281019290925201610146565b61019460045481565b61019460065481565b6102006102f2366004611369565b6109d6565b61030a610305366004611369565b610b44565b6040516101469190611487565b610200610325366004611369565b610c90565b61019461033836600461149a565b610cf0565b61019461034b3660046114c4565b610d21565b61026961035e3660046114fc565b610d3d565b610269610371366004611369565b61102a565b606060008267ffffffffffffffff811115610393576103936114e6565b60405190808252806020026020018201604052801561040157816020015b6040805161010081018252600080825260208083018290529282018190526060808301829052608083015260a0820181905260c0820181905260e082015282526000199092019101816103b15790505b50905060005b8381101561057a57600080868684818110610424576104246115d2565b9050602002013581526020019081526020016000206040518061010001604052908160008201548152602001600182015481526020016002820160009054906101000a90046001600160a01b03166001600160a01b03166001600160a01b03168152602001600382015481526020016004820180546104a2906115e8565b80601f01602080910402602001604051908101604052809291908181526020018280546104ce906115e8565b801561051b5780601f106104f05761010080835404028352916020019161051b565b820191906000526020600020905b8154815290600101906020018083116104fe57829003601f168201915b5050509183525050600582015460208201526006820154604082015260079091015460ff161515606090910152825183908390811061055c5761055c6115d2565b6020026020010181905250808061057290611638565b915050610407565b509392505050565b60006020819052908152604090208054600182015460028301546003840154600485018054949593946001600160a01b039093169391926105c2906115e8565b80601f01602080910402602001604051908101604052809291908181526020018280546105ee906115e8565b801561063b5780601f106106105761010080835404028352916020019161063b565b820191906000526020600020905b81548152906001019060200180831161061e57829003601f168201915b50505050600583015460068401546007909401549293909290915060ff1688565b60608167ffffffffffffffff811115610677576106776114e6565b6040519080825280602002602001820160405280156106a0578160200160208202803683370190505b50905060005b8281101561070c57600260008585848181106106c4576106c46115d2565b905060200201358152602001908152602001600020600001548282815181106106ef576106ef6115d2565b60209081029190910101528061070481611638565b9150506106a6565b5092915050565b6001600160a01b03811660009081526003602090815260409182902080548351818402810184019094528084526060939283018282801561077357602002820191906000526020600020905b81548152602001906001019080831161075f575b50505050509050919050565b60008381526020819052604090206002015483906001600160a01b031633146107e25760405162461bcd60e51b815260206004820152601060248201526f2737ba103b32b1ba37b91037bbb732b960811b60448201526064015b60405180910390fd5b600084815260208190526040902060060154849061083a5760405162461bcd60e51b8152602060048201526015602482015274159958dd1bdc88191bd95cc81b9bdd08195e1a5cdd605a1b60448201526064016107d9565b6000858152602081905260409020600781015460ff166108915760405162461bcd60e51b8152602060048201526012602482015271566563746f7220697320696e61637469766560701b60448201526064016107d9565b600581018054600183018790559085905542600683015584811461099257600085815260016020526040812054900361091457600580549060006108d483611638565b9190505550847f12f2f0c6e5a8ce3c91d8e8f03e01b4e2ee8f2d24fe09db3124c90eb57d2f0a6d4260405161090b91815260200190565b60405180910390a25b60008581526001602081815260408084208054938401815584528184209092018a905587835260029052812080549161094c83611638565b9091555050600085815260026020526040808220426001909101558282529020541561099257600081815260026020526040812080549161098c83611651565b91905055505b604080518781526020810187905288917f4caa5280a5b3096197f8ec3729fbaa02b52ecc8ac3a2aaf8d42fb3238a0beabd910160405180910390a250505050505050565b6000818152600160205260408120606091805b8254811015610a4e57600080848381548110610a0757610a076115d2565b6000918252602080832090910154835282019290925260400190206007015460ff1615610a3c5781610a3881611638565b9250505b80610a4681611638565b9150506109e9565b5060008167ffffffffffffffff811115610a6a57610a6a6114e6565b604051908082528060200260200182016040528015610a93578160200160208202803683370190505b5090506000805b8454811015610b3957600080868381548110610ab857610ab86115d2565b6000918252602080832090910154835282019290925260400190206007015460ff1615610b2757848181548110610af157610af16115d2565b9060005260206000200154838381518110610b0e57610b0e6115d2565b602090810291909101015281610b2381611638565b9250505b80610b3181611638565b915050610a9a565b509095945050505050565b60408051610100810182526000808252602082018190529181018290526060808201839052608082015260a0810182905260c0810182905260e0810191909152600082815260208181526040918290208251610100810184528154815260018201549281019290925260028101546001600160a01b03169282019290925260038201546060820152600482018054919291608084019190610be4906115e8565b80601f0160208091040260200160405190810160405280929190818152602001828054610c10906115e8565b8015610c5d5780601f10610c3257610100808354040283529160200191610c5d565b820191906000526020600020905b815481529060010190602001808311610c4057829003601f168201915b5050509183525050600582015460208201526006820154604082015260079091015460ff16151560609091015292915050565b600081815260016020908152604091829020805483518184028101840190945280845260609392830182828015610773576020028201919060005260206000209081548152602001906001019080831161075f5750505050509050919050565b60036020528160005260406000208181548110610d0c57600080fd5b90600052602060002001600091509150505481565b60016020528160005260406000208181548110610d0c57600080fd5b60008581526020819052604090206006015415610d9c5760405162461bcd60e51b815260206004820152601960248201527f566563746f7220616c726561647920726567697374657265640000000000000060448201526064016107d9565b60008311610de15760405162461bcd60e51b8152602060048201526012602482015271496e76616c69642064696d656e73696f6e7360701b60448201526064016107d9565b6000825111610e235760405162461bcd60e51b815260206004820152600e60248201526d135bd9195b081c995c5d5a5c995960921b60448201526064016107d9565b6040805161010081018252868152602080820187815233838501908152606084018881526080850188815260a086018890524260c0870152600160e0870181905260008d8152958690529690942085518155925195830195909555516002820180546001600160a01b0319166001600160a01b0390921691909117905592516003840155519091906004820190610eba90826116b7565b5060a0820151600582015560c0820151600682015560e0909101516007909101805460ff19169115159190911790556000818152600160205260408120549003610f4e5760058054906000610f0e83611638565b9190505550807f12f2f0c6e5a8ce3c91d8e8f03e01b4e2ee8f2d24fe09db3124c90eb57d2f0a6d42604051610f4591815260200190565b60405180910390a25b6000818152600160208181526040808420805493840181558452818420909201889055838352600290528120805491610f8683611638565b909155505060008181526002602090815260408083204260019182015533845260038352908320805491820181558352908220018690556004805491610fcb83611638565b909155505060068054906000610fe083611638565b91905055508084867f24f19a5583626d90c1d7468ae884cdbe3051a9e41e65bd0249be3c9f26c36ca433878760405161101b93929190611777565b60405180910390a45050505050565b60008181526020819052604090206002015481906001600160a01b031633146110885760405162461bcd60e51b815260206004820152601060248201526f2737ba103b32b1ba37b91037bbb732b960811b60448201526064016107d9565b60008281526020819052604090206006015482906110e05760405162461bcd60e51b8152602060048201526015602482015274159958dd1bdc88191bd95cc81b9bdd08195e1a5cdd605a1b60448201526064016107d9565b6000838152602081905260409020600781015460ff166111355760405162461bcd60e51b815260206004820152601060248201526f416c726561647920696e61637469766560801b60448201526064016107d9565b60078101805460ff1916905560058101546000818152600260205260409020541561117a57600081815260026020526040812080549161117483611651565b91905055505b60065415611198576006805490600061119283611651565b91905055505b847f1349d4557a900e807dea0b5c0e4cfc82ea1b07386c63f59c3f5d1aa842c270a6426040516111ca91815260200190565b60405180910390a25050505050565b600080602083850312156111ec57600080fd5b823567ffffffffffffffff8082111561120457600080fd5b818501915085601f83011261121857600080fd5b81358181111561122757600080fd5b8660208260051b850101111561123c57600080fd5b60209290920196919550909350505050565b6000815180845260005b8181101561127457602081850181015186830182015201611258565b506000602082860101526020601f19601f83011685010191505092915050565b6000610100825184526020830151602085015260018060a01b0360408401511660408501526060830151606085015260808301518160808601526112da8286018261124e565b91505060a083015160a085015260c083015160c085015260e0830151151560e08501528091505092915050565b6000602080830181845280855180835260408601915060408160051b870101925083870160005b8281101561135c57603f1988860301845261134a858351611294565b9450928501929085019060010161132e565b5092979650505050505050565b60006020828403121561137b57600080fd5b5035919050565b60006101008a835289602084015260018060a01b03891660408401528760608401528060808401526113b68184018861124e565b60a0840196909652505060c0810192909252151560e09091015295945050505050565b6020808252825182820181905260009190848201906040850190845b81811015611411578351835292840192918401916001016113f5565b50909695505050505050565b80356001600160a01b038116811461143457600080fd5b919050565b60006020828403121561144b57600080fd5b6114548261141d565b9392505050565b60008060006060848603121561147057600080fd5b505081359360208301359350604090920135919050565b6020815260006114546020830184611294565b600080604083850312156114ad57600080fd5b6114b68361141d565b946020939093013593505050565b600080604083850312156114d757600080fd5b50508035926020909101359150565b634e487b7160e01b600052604160045260246000fd5b600080600080600060a0868803121561151457600080fd5b853594506020860135935060408601359250606086013567ffffffffffffffff8082111561154157600080fd5b818801915088601f83011261155557600080fd5b813581811115611567576115676114e6565b604051601f8201601f19908116603f0116810190838211818310171561158f5761158f6114e6565b816040528281528b60208487010111156115a857600080fd5b82602086016020830137600092810160200192909252509699959850939660800135949350505050565b634e487b7160e01b600052603260045260246000fd5b600181811c908216806115fc57607f821691505b60208210810361161c57634e487b7160e01b600052602260045260246000fd5b50919050565b634e487b7160e01b600052601160045260246000fd5b60006001820161164a5761164a611622565b5060010190565b60008161166057611660611622565b506000190190565b601f8211156116b257600081815260208120601f850160051c8101602086101561168f5750805b601f850160051c820191505b818110156116ae5782815560010161169b565b5050505b505050565b815167ffffffffffffffff8111156116d1576116d16114e6565b6116e5816116df84546115e8565b84611668565b602080601f83116001811461171a57600084156117025750858301515b600019600386901b1c1916600185901b1785556116ae565b600085815260208120601f198616915b828110156117495788860151825594840194600190910190840161172a565b50858210156117675787850151600019600388901b60f8161c191681555b5050505050600190811b01905550565b60018060a01b038416815282602082015260606040820152600061179e606083018461124e565b9594505050505056fea26469706673582212205a0cdc054604f87387bb3f9360392efa6b2fa6e27ed7951e5dd34c6ec4841e3e64736f6c63430008140033",
  "linkReferences": {},
  "deployedLinkReferences": {}
}